{"contracts/ClusteredNFTEnumerable.sol":{"ClusteredNFTEnumerable":{"abi":[{"inputs":[{"internalType":"string","name":"name","type":"string"},{"internalType":"string","name":"symbol","type":"string"}],"stateMutability":"nonpayable","type":"constructor"},{"inputs":[],"name":"ClusterFull","type":"error"},{"inputs":[],"name":"ClusterNotFound","type":"error"},{"inputs":[],"name":"NotClusterOwner","type":"error"},{"inputs":[],"name":"SizeTooLarge","type":"error"},{"inputs":[],"name":"TokenDoesNotExist","type":"error"},{"inputs":[],"name":"ZeroAddress","type":"error"},{"anonymous":false,"inputs":[{"indexed":true,"internalType":"address","name":"owner","type":"address"},{"indexed":true,"internalType":"address","name":"approved","type":"address"},{"indexed":true,"internalType":"uint256","name":"tokenId","type":"uint256"}],"name":"Approval","type":"event"},{"anonymous":false,"inputs":[{"indexed":true,"internalType":"address","name":"owner","type":"address"},{"indexed":true,"internalType":"address","name":"operator","type":"address"},{"indexed":false,"internalType":"bool","name":"approved","type":"bool"}],"name":"ApprovalForAll","type":"event"},{"anonymous":false,"inputs":[{"indexed":true,"internalType":"uint256","name":"clusterId","type":"uint256"},{"indexed":false,"internalType":"string","name":"name","type":"string"},{"indexed":false,"internalType":"string","name":"symbol","type":"string"},{"indexed":false,"internalType":"string","name":"baseTokenURI","type":"string"},{"indexed":false,"internalType":"uint256","name":"size","type":"uint256"},{"indexed":false,"internalType":"address","name":"owner","type":"address"}],"name":"ClusterAdded","type":"event"},{"anonymous":false,"inputs":[{"indexed":true,"internalType":"uint256","name":"clusterId","type":"uint256"},{"indexed":true,"internalType":"address","name":"newOwner","type":"address"}],"name":"ClusterOwnershipTransferred","type":"event"},{"anonymous":false,"inputs":[{"indexed":true,"internalType":"address","name":"from","type":"address"},{"indexed":true,"internalType":"address","name":"to","type":"address"},{"indexed":true,"internalType":"uint256","name":"tokenId","type":"uint256"}],"name":"Transfer","type":"event"},{"inputs":[{"internalType":"string","name":"name","type":"string"},{"internalType":"string","name":"symbol","type":"string"},{"internalType":"string","name":"baseTokenURI","type":"string"},{"internalType":"uint256","name":"size","type":"uint256"},{"internalType":"address","name":"clusterOwner_","type":"address"}],"name":"addCluster","outputs":[],"stateMutability":"nonpayable","type":"function"},{"inputs":[{"internalType":"address","name":"to","type":"address"},{"internalType":"uint256","name":"tokenId","type":"uint256"}],"name":"approve","outputs":[],"stateMutability":"nonpayable","type":"function"},{"inputs":[{"internalType":"address","name":"owner","type":"address"}],"name":"balanceOf","outputs":[{"internalType":"uint256","name":"","type":"uint256"}],"stateMutability":"view","type":"function"},{"inputs":[{"internalType":"address","name":"owner","type":"address"},{"internalType":"uint256","name":"clusterId","type":"uint256"}],"name":"balanceOfWithin","outputs":[{"internalType":"uint256","name":"","type":"uint256"}],"stateMutability":"view","type":"function"},{"inputs":[{"internalType":"address","name":"","type":"address"},{"internalType":"uint256","name":"","type":"uint256"}],"name":"clusterIdByOwners","outputs":[{"internalType":"uint256","name":"","type":"uint256"}],"stateMutability":"view","type":"function"},{"inputs":[{"internalType":"uint256","name":"tokenId","type":"uint256"}],"name":"clusterOf","outputs":[{"internalType":"uint256","name":"","type":"uint256"}],"stateMutability":"view","type":"function"},{"inputs":[{"internalType":"uint256","name":"clusterId","type":"uint256"}],"name":"clusterOwner","outputs":[{"internalType":"address","name":"","type":"address"}],"stateMutability":"view","type":"function"},{"inputs":[{"internalType":"uint256","name":"","type":"uint256"}],"name":"clusters","outputs":[{"internalType":"address","name":"owner","type":"address"},{"internalType":"uint32","name":"size","type":"uint32"},{"internalType":"uint32","name":"firstTokenId","type":"uint32"},{"internalType":"uint32","name":"nextTokenId","type":"uint32"},{"internalType":"string","name":"name","type":"string"},{"internalType":"string","name":"symbol","type":"string"},{"internalType":"string","name":"baseTokenURI","type":"string"}],"stateMutability":"view","type":"function"},{"inputs":[{"internalType":"address","name":"owner","type":"address"}],"name":"clustersByOwner","outputs":[{"internalType":"uint256[]","name":"","type":"uint256[]"}],"stateMutability":"view","type":"function"},{"inputs":[],"name":"clustersCount","outputs":[{"internalType":"uint256","name":"","type":"uint256"}],"stateMutability":"view","type":"function"},{"inputs":[{"internalType":"uint256","name":"tokenId","type":"uint256"}],"name":"getApproved","outputs":[{"internalType":"address","name":"","type":"address"}],"stateMutability":"view","type":"function"},{"inputs":[],"name":"getInterfaceId","outputs":[{"internalType":"bytes4","name":"","type":"bytes4"}],"stateMutability":"pure","type":"function"},{"inputs":[{"internalType":"address","name":"owner","type":"address"},{"internalType":"address","name":"operator","type":"address"}],"name":"isApprovedForAll","outputs":[{"internalType":"bool","name":"","type":"bool"}],"stateMutability":"view","type":"function"},{"inputs":[],"name":"maxSize","outputs":[{"internalType":"uint256","name":"","type":"uint256"}],"stateMutability":"view","type":"function"},{"inputs":[{"internalType":"uint256","name":"clusterId","type":"uint256"},{"internalType":"address","name":"to","type":"address"}],"name":"mint","outputs":[],"stateMutability":"nonpayable","type":"function"},{"inputs":[],"name":"name","outputs":[{"internalType":"string","name":"","type":"string"}],"stateMutability":"view","type":"function"},{"inputs":[{"internalType":"uint256","name":"clusterId","type":"uint256"}],"name":"nameOf","outputs":[{"internalType":"string","name":"","type":"string"}],"stateMutability":"view","type":"function"},{"inputs":[{"internalType":"uint256","name":"tokenId","type":"uint256"}],"name":"normalizedTokenId","outputs":[{"internalType":"uint256","name":"","type":"uint256"}],"stateMutability":"view","type":"function"},{"inputs":[{"internalType":"uint256","name":"tokenId","type":"uint256"}],"name":"ownerOf","outputs":[{"internalType":"address","name":"","type":"address"}],"stateMutability":"view","type":"function"},{"inputs":[{"internalType":"uint256","name":"normalizedTokenId_","type":"uint256"},{"internalType":"uint256","name":"clusterId","type":"uint256"}],"name":"ownerOfWithin","outputs":[{"internalType":"address","name":"","type":"address"}],"stateMutability":"view","type":"function"},{"inputs":[{"internalType":"uint256","name":"clusterId","type":"uint256"}],"name":"rangeOf","outputs":[{"internalType":"uint256","name":"","type":"uint256"},{"internalType":"uint256","name":"","type":"uint256"}],"stateMutability":"view","type":"function"},{"inputs":[{"internalType":"address","name":"from","type":"address"},{"internalType":"address","name":"to","type":"address"},{"internalType":"uint256","name":"tokenId","type":"uint256"}],"name":"safeTransferFrom","outputs":[],"stateMutability":"nonpayable","type":"function"},{"inputs":[{"internalType":"address","name":"from","type":"address"},{"internalType":"address","name":"to","type":"address"},{"internalType":"uint256","name":"tokenId","type":"uint256"},{"internalType":"bytes","name":"data","type":"bytes"}],"name":"safeTransferFrom","outputs":[],"stateMutability":"nonpayable","type":"function"},{"inputs":[{"internalType":"address","name":"operator","type":"address"},{"internalType":"bool","name":"approved","type":"bool"}],"name":"setApprovalForAll","outputs":[],"stateMutability":"nonpayable","type":"function"},{"inputs":[{"internalType":"uint256","name":"clusterId","type":"uint256"}],"name":"supplyWithin","outputs":[{"internalType":"uint256","name":"","type":"uint256"}],"stateMutability":"view","type":"function"},{"inputs":[{"internalType":"bytes4","name":"interfaceId","type":"bytes4"}],"name":"supportsInterface","outputs":[{"internalType":"bool","name":"","type":"bool"}],"stateMutability":"view","type":"function"},{"inputs":[],"name":"symbol","outputs":[{"internalType":"string","name":"","type":"string"}],"stateMutability":"view","type":"function"},{"inputs":[{"internalType":"uint256","name":"clusterId","type":"uint256"}],"name":"symbolOf","outputs":[{"internalType":"string","name":"","type":"string"}],"stateMutability":"view","type":"function"},{"inputs":[{"internalType":"uint256","name":"index","type":"uint256"}],"name":"tokenByIndex","outputs":[{"internalType":"uint256","name":"","type":"uint256"}],"stateMutability":"view","type":"function"},{"inputs":[{"internalType":"address","name":"owner","type":"address"},{"internalType":"uint256","name":"index","type":"uint256"}],"name":"tokenOfOwnerByIndex","outputs":[{"internalType":"uint256","name":"","type":"uint256"}],"stateMutability":"view","type":"function"},{"inputs":[{"internalType":"uint256","name":"tokenId","type":"uint256"}],"name":"tokenURI","outputs":[{"internalType":"string","name":"","type":"string"}],"stateMutability":"view","type":"function"},{"inputs":[],"name":"totalSupply","outputs":[{"internalType":"uint256","name":"","type":"uint256"}],"stateMutability":"view","type":"function"},{"inputs":[{"internalType":"uint256","name":"clusterId","type":"uint256"},{"internalType":"address","name":"newOwner","type":"address"}],"name":"transferClusterOwnership","outputs":[],"stateMutability":"nonpayable","type":"function"},{"inputs":[{"internalType":"address","name":"from","type":"address"},{"internalType":"address","name":"to","type":"address"},{"internalType":"uint256","name":"tokenId","type":"uint256"}],"name":"transferFrom","outputs":[],"stateMutability":"nonpayable","type":"function"}],"evm":{"bytecode":{"linkReferences":{},"object":"60806040526127106008553480156200001757600080fd5b5060405162002d3138038062002d318339810160408190526200003a916200012d565b8181818160006200004c838262000226565b5060016200005b828262000226565b50505050505050620002f2565b634e487b7160e01b600052604160045260246000fd5b600082601f8301126200009057600080fd5b81516001600160401b0380821115620000ad57620000ad62000068565b604051601f8301601f19908116603f01168101908282118183101715620000d857620000d862000068565b81604052838152602092508683858801011115620000f557600080fd5b600091505b83821015620001195785820183015181830184015290820190620000fa565b600093810190920192909252949350505050565b600080604083850312156200014157600080fd5b82516001600160401b03808211156200015957600080fd5b62000167868387016200007e565b935060208501519150808211156200017e57600080fd5b506200018d858286016200007e565b9150509250929050565b600181811c90821680620001ac57607f821691505b602082108103620001cd57634e487b7160e01b600052602260045260246000fd5b50919050565b601f8211156200022157600081815260208120601f850160051c81016020861015620001fc5750805b601f850160051c820191505b818110156200021d5782815560010162000208565b5050505b505050565b81516001600160401b0381111562000242576200024262000068565b6200025a8162000253845462000197565b84620001d3565b602080601f831160018114620002925760008415620002795750858301515b600019600386901b1c1916600185901b1785556200021d565b600085815260208120601f198616915b82811015620002c357888601518255948401946001909101908401620002a2565b5085821015620002e25787850151600019600388901b60f8161c191681555b5050505050600190811b01905550565b612a2f80620003026000396000f3fe608060405234801561001057600080fd5b50600436106102065760003560e01c806370a082311161011a578063b51beb93116100ad578063c87b56dd1161007c578063c87b56dd1461048f578063d4fa5203146104a2578063dc36e281146104b5578063e985e9c5146104c8578063f43d0a381461050457600080fd5b8063b51beb9314610436578063b88d4fde14610456578063ba108f5014610469578063c71ca2161461047c57600080fd5b806394bf804d116100e957806394bf804d1461040057806395d89b41146104135780639a96f0b11461041b578063a22cb4651461042357600080fd5b806370a08231146103a157806375cfbe6c146103b457806384e4735f146103c7578063919500c0146103da57600080fd5b80632565b1591161019d5780633c5640f21161016c5780633c5640f21461034057806342842e0e146103535780634f6ccce7146103665780636352211e146103795780636b9241fc1461038c57600080fd5b80632565b159146102d35780632f745c59146102dc57806331580311146102ef5780633a939a9a1461031757600080fd5b8063081812fc116101d9578063081812fc14610286578063095ea7b31461029957806318160ddd146102ae57806323b872dd146102c057600080fd5b806301ffc9a71461020b5780630343d2a014610233578063051a26641461025e57806306fdde031461027e575b600080fd5b61021e610219366004612174565b610517565b60405190151581526020015b60405180910390f35b610246610241366004612191565b610542565b6040516001600160a01b03909116815260200161022a565b61027161026c3660046121b3565b6105f2565b60405161022a919061221c565b610271610697565b6102466102943660046121b3565b610729565b6102ac6102a736600461224b565b610750565b005b600c545b60405190815260200161022a565b6102ac6102ce366004612275565b61086a565b6102b260085481565b6102b26102ea36600461224b565b61089b565b6103026102fd3660046121b3565b610931565b6040805192835260208301919091520161022a565b6102466103253660046121b3565b6000908152600660205260409020546001600160a01b031690565b6102b261034e36600461224b565b610982565b6102ac610361366004612275565b610a02565b6102b26103743660046121b3565b610a1d565b6102466103873660046121b3565b610ab0565b604051631e2b207960e11b815260200161022a565b6102b26103af3660046122b1565b610b10565b6102716103c23660046121b3565b610b96565b6102ac6103d5366004612378565b610bb6565b6103ed6103e83660046121b3565b610e3f565b60405161022a979695949392919061241b565b6102ac61040e36600461248f565b61102d565b610271611172565b6009546102b2565b6102ac6104313660046124bb565b611181565b6104496104443660046122b1565b61118c565b60405161022a91906124f7565b6102ac61046436600461253b565b6111f7565b6102b26104773660046121b3565b61122f565b6102ac61048a36600461248f565b61126a565b61027161049d3660046121b3565b611321565b6102b26104b036600461224b565b611465565b6102b26104c33660046121b3565b611496565b61021e6104d63660046125b7565b6001600160a01b03918216600090815260056020908152604080832093909416825291909152205460ff1690565b6102b26105123660046121b3565b6114c6565b6000631e2b207960e11b6001600160e01b03198316148061053c575061053c8261152a565b92915050565b6000818152600660205260408120546001600160a01b031661057757604051631eaebd1960e11b815260040160405180910390fd5b600082815260066020526040902054600160a01b900463ffffffff168311156105b35760405163677510db60e11b815260040160405180910390fd5b6000828152600660205260409020546105eb906001906105e1908690600160c01b900463ffffffff166125f7565b610387919061260a565b9392505050565b60008181526006602052604090206001018054606091906106129061261d565b80601f016020809104026020016040519081016040528092919081815260200182805461063e9061261d565b801561068b5780601f106106605761010080835404028352916020019161068b565b820191906000526020600020905b81548152906001019060200180831161066e57829003601f168201915b50505050509050919050565b6060600080546106a69061261d565b80601f01602080910402602001604051908101604052809291908181526020018280546106d29061261d565b801561071f5780601f106106f45761010080835404028352916020019161071f565b820191906000526020600020905b81548152906001019060200180831161070257829003601f168201915b5050505050905090565b60006107348261154f565b506000908152600460205260409020546001600160a01b031690565b600061075b82610ab0565b9050806001600160a01b0316836001600160a01b0316036107cd5760405162461bcd60e51b815260206004820152602160248201527f4552433732313a20617070726f76616c20746f2063757272656e74206f776e656044820152603960f91b60648201526084015b60405180910390fd5b336001600160a01b03821614806107e957506107e981336104d6565b61085b5760405162461bcd60e51b815260206004820152603d60248201527f4552433732313a20617070726f76652063616c6c6572206973206e6f7420746f60448201527f6b656e206f776e6572206f7220617070726f76656420666f7220616c6c00000060648201526084016107c4565b61086583836115b1565b505050565b610874338261161f565b6108905760405162461bcd60e51b81526004016107c490612657565b61086583838361169d565b60006108a683610b10565b82106109085760405162461bcd60e51b815260206004820152602b60248201527f455243373231456e756d657261626c653a206f776e657220696e646578206f7560448201526a74206f6620626f756e647360a81b60648201526084016107c4565b506001600160a01b03919091166000908152600a60209081526040808320938352929052205490565b600081815260066020526040812054819063ffffffff600160c01b820481169160019161096691600160a01b900416836126a4565b61097091906126c8565b63ffffffff9182169591169350915050565b60008061098e84610b10565b905080156105eb57600080806109a386610931565b9150915060005b848110156109f65760006109be898361089b565b90508381101580156109d05750828111155b156109e357846109df816126e5565b9550505b50806109ee816126e5565b9150506109aa565b50919695505050505050565b610865838383604051806020016040528060008152506111f7565b6000610a28600c5490565b8210610a8b5760405162461bcd60e51b815260206004820152602c60248201527f455243373231456e756d657261626c653a20676c6f62616c20696e646578206f60448201526b7574206f6620626f756e647360a01b60648201526084016107c4565b600c8281548110610a9e57610a9e6126fe565b90600052602060002001549050919050565b6000818152600260205260408120546001600160a01b03168061053c5760405162461bcd60e51b8152602060048201526018602482015277115490cdcc8c4e881a5b9d985b1a59081d1bdad95b88125160421b60448201526064016107c4565b60006001600160a01b038216610b7a5760405162461bcd60e51b815260206004820152602960248201527f4552433732313a2061646472657373207a65726f206973206e6f7420612076616044820152683634b21037bbb732b960b91b60648201526084016107c4565b506001600160a01b031660009081526003602052604090205490565b60008181526006602052604090206002018054606091906106129061261d565b6001600160a01b038116610bdd5760405163d92e233d60e01b815260040160405180910390fd5b600854821115610c005760405163033de1f160e21b815260040160405180910390fd5b60095460009015610c90576001600660006001600954610c20919061260a565b815260200190815260200160002060000160149054906101000a900463ffffffff16600660006001600954610c55919061260a565b8152602081019190915260400160002054610c7d9190600160c01b900463ffffffff166126a4565b610c8791906126c8565b63ffffffff1690505b6040805160e0810182526001600160a01b038416815263ffffffff85166020820152908101610cc08360016125f7565b63ffffffff168152602001610cd68360016125f7565b63ffffffff908116825260208083018a905260408084018a90526060938401899052600954600090815260068352819020855181549387015192870151958701518516600160e01b026001600160e01b03968616600160c01b02969096166001600160c01b0393909516600160a01b026001600160c01b03199094166001600160a01b039091161792909217169190911791909117815560808201516001820190610d819082612762565b5060a08201516002820190610d969082612762565b5060c08201516003820190610dab9082612762565b5050506001600160a01b0382166000908152600760209081526040808320600980548254600181018455928652939094200191909155905490517f78bd041ccde566840671287ec2af1ba89e89999397da28c1e2c980c462d12c4b90610e1a9089908990899089908990612822565b60405180910390a260098054906000610e32836126e5565b9190505550505050505050565b600660205260009081526040902080546001820180546001600160a01b0383169363ffffffff600160a01b8504811694600160c01b8104821694600160e01b90910490911692610e8e9061261d565b80601f0160208091040260200160405190810160405280929190818152602001828054610eba9061261d565b8015610f075780601f10610edc57610100808354040283529160200191610f07565b820191906000526020600020905b815481529060010190602001808311610eea57829003601f168201915b505050505090806002018054610f1c9061261d565b80601f0160208091040260200160405190810160405280929190818152602001828054610f489061261d565b8015610f955780601f10610f6a57610100808354040283529160200191610f95565b820191906000526020600020905b815481529060010190602001808311610f7857829003601f168201915b505050505090806003018054610faa9061261d565b80601f0160208091040260200160405190810160405280929190818152602001828054610fd69061261d565b80156110235780601f10610ff857610100808354040283529160200191611023565b820191906000526020600020905b81548152906001019060200180831161100657829003601f168201915b5050505050905087565b6000828152600660205260409020546001600160a01b031661106257604051631eaebd1960e11b815260040160405180910390fd5b6000828152600660205260409020546001600160a01b03163314611099576040516304b016c960e41b815260040160405180910390fd5b6000828152600660205260409020546001906110cb9063ffffffff600160a01b8204811691600160c01b9004166126a4565b6110d591906126c8565b60008381526006602052604090205463ffffffff918216600160e01b9091049091161115611116576040516340f6549f60e11b815260040160405180910390fd5b6000828152600660205260409020805461116e918391600160e01b900463ffffffff1690601c6111458361287e565b91906101000a81548163ffffffff021916908363ffffffff16021790555063ffffffff1661180e565b5050565b6060600180546106a69061261d565b61116e3383836119a7565b6001600160a01b03811660009081526007602090815260409182902080548351818402810184019094528084526060939283018282801561068b57602002820191906000526020600020905b8154815260200190600101908083116111d85750505050509050919050565b611201338361161f565b61121d5760405162461bcd60e51b81526004016107c490612657565b61122984848484611a75565b50505050565b60008181526006602052604081205461125e9063ffffffff600160c01b8204811691600160e01b9004166126c8565b63ffffffff1692915050565b6001600160a01b0381166112915760405163d92e233d60e01b815260040160405180910390fd5b6000828152600660205260409020546001600160a01b031633146112c8576040516304b016c960e41b815260040160405180910390fd5b60008281526006602052604080822080546001600160a01b0319166001600160a01b0385169081179091559051909184917fa45f64b64d3d529c6ec20136f62d48c17448960ccac66cd92d65320a6e8461ec9190a35050565b606061132c8261154f565b600061133783611aa8565b6000818152600660205260408120600301805492935090916113589061261d565b80601f01602080910402602001604051908101604052809291908181526020018280546113849061261d565b80156113d15780601f106113a6576101008083540402835291602001916113d1565b820191906000526020600020905b8154815290600101906020018083116113b457829003601f168201915b5050506000858152600660205260409020549293506114029260019250600160c01b900463ffffffff1690506126c8565b6114129063ffffffff168561260a565b93506000815111611432576040518060200160405280600081525061145d565b8061143c85611bad565b60405160200161144d9291906128a1565b6040516020818303038152906040525b949350505050565b6007602052816000526040600020818154811061148157600080fd5b90600052602060002001600091509150505481565b6000806114a283611aa8565b9050600019810361053c57604051631eaebd1960e11b815260040160405180910390fd5b6000806114d283611aa8565b905063fffffffe1981016114f957604051631eaebd1960e11b815260040160405180910390fd5b60008181526006602052604090205461151f90600160c01b900463ffffffff168461260a565b6105eb9060016125f7565b60006001600160e01b0319821663780e9d6360e01b148061053c575061053c82611c40565b6000818152600260205260409020546001600160a01b03166115ae5760405162461bcd60e51b8152602060048201526018602482015277115490cdcc8c4e881a5b9d985b1a59081d1bdad95b88125160421b60448201526064016107c4565b50565b600081815260046020526040902080546001600160a01b0319166001600160a01b03841690811790915581906115e682610ab0565b6001600160a01b03167f8c5be1e5ebec7d5bd14f71427d1e84f3dd0314c0f7b2291e5b200ac8c7c3b92560405160405180910390a45050565b60008061162b83610ab0565b9050806001600160a01b0316846001600160a01b0316148061167257506001600160a01b0380821660009081526005602090815260408083209388168352929052205460ff165b8061145d5750836001600160a01b031661168b84610729565b6001600160a01b031614949350505050565b826001600160a01b03166116b082610ab0565b6001600160a01b0316146116d65760405162461bcd60e51b81526004016107c4906128d0565b6001600160a01b0382166117385760405162461bcd60e51b8152602060048201526024808201527f4552433732313a207472616e7366657220746f20746865207a65726f206164646044820152637265737360e01b60648201526084016107c4565b6117458383836001611c65565b826001600160a01b031661175882610ab0565b6001600160a01b03161461177e5760405162461bcd60e51b81526004016107c4906128d0565b600081815260046020908152604080832080546001600160a01b03199081169091556001600160a01b0387811680865260038552838620805460001901905590871680865283862080546001019055868652600290945282852080549092168417909155905184937fddf252ad1be2c89b69c2b068fc378daa952ba7f163c4a11628f55a4df523b3ef91a4505050565b6001600160a01b0382166118645760405162461bcd60e51b815260206004820181905260248201527f4552433732313a206d696e7420746f20746865207a65726f206164647265737360448201526064016107c4565b6000818152600260205260409020546001600160a01b0316156118c95760405162461bcd60e51b815260206004820152601c60248201527f4552433732313a20746f6b656e20616c7265616479206d696e7465640000000060448201526064016107c4565b6118d7600083836001611c65565b6000818152600260205260409020546001600160a01b03161561193c5760405162461bcd60e51b815260206004820152601c60248201527f4552433732313a20746f6b656e20616c7265616479206d696e7465640000000060448201526064016107c4565b6001600160a01b038216600081815260036020908152604080832080546001019055848352600290915280822080546001600160a01b0319168417905551839291907fddf252ad1be2c89b69c2b068fc378daa952ba7f163c4a11628f55a4df523b3ef908290a45050565b816001600160a01b0316836001600160a01b031603611a085760405162461bcd60e51b815260206004820152601960248201527f4552433732313a20617070726f766520746f2063616c6c65720000000000000060448201526064016107c4565b6001600160a01b03838116600081815260056020908152604080832094871680845294825291829020805460ff191686151590811790915591519182527f17307eab39ab6107e8899845ad3d59bd9653f200f220920489ca2b5937696c31910160405180910390a3505050565b611a8084848461169d565b611a8c84848484611c71565b6112295760405162461bcd60e51b81526004016107c490612915565b6000600954600003611abd5750600019919050565b6000806001600954611acf919061260a565b905060005b818311611ba1576002611ae7848461260a565b611af19190612967565b611afb90846125f7565b60008181526006602052604081205491925063ffffffff600160c01b8304811692611b2f91600160a01b90910416836126a4565b63ffffffff169050818710158015611b4657508087105b15611b5657509095945050505050565b808710611b7d57838303611b6b575050611ba1565b611b768360016125f7565b9450611b9a565b82600003611b8c575050611ba1565b611b9760018461260a565b93505b5050611ad4565b50600019949350505050565b60606000611bba83611d72565b600101905060008167ffffffffffffffff811115611bda57611bda6122cc565b6040519080825280601f01601f191660200182016040528015611c04576020820181803683370190505b5090508181016020015b600019016f181899199a1a9b1b9c1cb0b131b232b360811b600a86061a8153600a8504945084611c0e57509392505050565b6000633d0d0dc960e21b6001600160e01b03198316148061053c575061053c82611e4a565b61122984848484611e9a565b60006001600160a01b0384163b15611d6757604051630a85bd0160e11b81526001600160a01b0385169063150b7a0290611cb5903390899088908890600401612989565b6020604051808303816000875af1925050508015611cf0575060408051601f3d908101601f19168201909252611ced918101906129c6565b60015b611d4d573d808015611d1e576040519150601f19603f3d011682016040523d82523d6000602084013e611d23565b606091505b508051600003611d455760405162461bcd60e51b81526004016107c490612915565b805181602001fd5b6001600160e01b031916630a85bd0160e11b14905061145d565b506001949350505050565b60008072184f03e93ff9f4daa797ed6e38ed64bf6a1f0160401b8310611db15772184f03e93ff9f4daa797ed6e38ed64bf6a1f0160401b830492506040015b6d04ee2d6d415b85acef81000000008310611ddd576d04ee2d6d415b85acef8100000000830492506020015b662386f26fc100008310611dfb57662386f26fc10000830492506010015b6305f5e1008310611e13576305f5e100830492506008015b6127108310611e2757612710830492506004015b60648310611e39576064830492506002015b600a831061053c5760010192915050565b60006001600160e01b031982166380ac58cd60e01b1480611e7b57506001600160e01b03198216635b5e139f60e01b145b8061053c57506301ffc9a760e01b6001600160e01b031983161461053c565b6001811115611f095760405162461bcd60e51b815260206004820152603560248201527f455243373231456e756d657261626c653a20636f6e7365637574697665207472604482015274185b9cd9995c9cc81b9bdd081cdd5c1c1bdc9d1959605a1b60648201526084016107c4565b816001600160a01b038516611f6557611f6081600c80546000838152600d60205260408120829055600182018355919091527fdf6966c971051c3d54ec59162606531493a51404a002842f56009d7e5cf4a8c70155565b611f88565b836001600160a01b0316856001600160a01b031614611f8857611f888582611fce565b6001600160a01b038416611fa457611f9f8161206b565b611fc7565b846001600160a01b0316846001600160a01b031614611fc757611fc7848261211a565b5050505050565b60006001611fdb84610b10565b611fe5919061260a565b6000838152600b6020526040902054909150808214612038576001600160a01b0384166000908152600a602090815260408083208584528252808320548484528184208190558352600b90915290208190555b506000918252600b602090815260408084208490556001600160a01b039094168352600a81528383209183525290812055565b600c5460009061207d9060019061260a565b6000838152600d6020526040812054600c80549394509092849081106120a5576120a56126fe565b9060005260206000200154905080600c83815481106120c6576120c66126fe565b6000918252602080832090910192909255828152600d9091526040808220849055858252812055600c8054806120fe576120fe6129e3565b6001900381819060005260206000200160009055905550505050565b600061212583610b10565b6001600160a01b039093166000908152600a602090815260408083208684528252808320859055938252600b9052919091209190915550565b6001600160e01b0319811681146115ae57600080fd5b60006020828403121561218657600080fd5b81356105eb8161215e565b600080604083850312156121a457600080fd5b50508035926020909101359150565b6000602082840312156121c557600080fd5b5035919050565b60005b838110156121e75781810151838201526020016121cf565b50506000910152565b600081518084526122088160208601602086016121cc565b601f01601f19169290920160200192915050565b6020815260006105eb60208301846121f0565b80356001600160a01b038116811461224657600080fd5b919050565b6000806040838503121561225e57600080fd5b6122678361222f565b946020939093013593505050565b60008060006060848603121561228a57600080fd5b6122938461222f565b92506122a16020850161222f565b9150604084013590509250925092565b6000602082840312156122c357600080fd5b6105eb8261222f565b634e487b7160e01b600052604160045260246000fd5b600067ffffffffffffffff808411156122fd576122fd6122cc565b604051601f8501601f19908116603f01168101908282118183101715612325576123256122cc565b8160405280935085815286868601111561233e57600080fd5b858560208301376000602087830101525050509392505050565b600082601f83011261236957600080fd5b6105eb838335602085016122e2565b600080600080600060a0868803121561239057600080fd5b853567ffffffffffffffff808211156123a857600080fd5b6123b489838a01612358565b965060208801359150808211156123ca57600080fd5b6123d689838a01612358565b955060408801359150808211156123ec57600080fd5b506123f988828901612358565b9350506060860135915061240f6080870161222f565b90509295509295909350565b6001600160a01b038816815263ffffffff878116602083015286811660408301528516606082015260e06080820181905260009061245b908301866121f0565b82810360a084015261246d81866121f0565b905082810360c084015261248181856121f0565b9a9950505050505050505050565b600080604083850312156124a257600080fd5b823591506124b26020840161222f565b90509250929050565b600080604083850312156124ce57600080fd5b6124d78361222f565b9150602083013580151581146124ec57600080fd5b809150509250929050565b6020808252825182820181905260009190848201906040850190845b8181101561252f57835183529284019291840191600101612513565b50909695505050505050565b6000806000806080858703121561255157600080fd5b61255a8561222f565b93506125686020860161222f565b925060408501359150606085013567ffffffffffffffff81111561258b57600080fd5b8501601f8101871361259c57600080fd5b6125ab878235602084016122e2565b91505092959194509250565b600080604083850312156125ca57600080fd5b6125d38361222f565b91506124b26020840161222f565b634e487b7160e01b600052601160045260246000fd5b8082018082111561053c5761053c6125e1565b8181038181111561053c5761053c6125e1565b600181811c9082168061263157607f821691505b60208210810361265157634e487b7160e01b600052602260045260246000fd5b50919050565b6020808252602d908201527f4552433732313a2063616c6c6572206973206e6f7420746f6b656e206f776e6560408201526c1c881bdc88185c1c1c9bdd9959609a1b606082015260800190565b63ffffffff8181168382160190808211156126c1576126c16125e1565b5092915050565b63ffffffff8281168282160390808211156126c1576126c16125e1565b6000600182016126f7576126f76125e1565b5060010190565b634e487b7160e01b600052603260045260246000fd5b601f82111561086557600081815260208120601f850160051c8101602086101561273b5750805b601f850160051c820191505b8181101561275a57828155600101612747565b505050505050565b815167ffffffffffffffff81111561277c5761277c6122cc565b6127908161278a845461261d565b84612714565b602080601f8311600181146127c557600084156127ad5750858301515b600019600386901b1c1916600185901b17855561275a565b600085815260208120601f198616915b828110156127f4578886015182559484019460019091019084016127d5565b50858210156128125787850151600019600388901b60f8161c191681555b5050505050600190811b01905550565b60a08152600061283560a08301886121f0565b828103602084015261284781886121f0565b9050828103604084015261285b81876121f0565b606084019590955250506001600160a01b03919091166080909101529392505050565b600063ffffffff808316818103612897576128976125e1565b6001019392505050565b600083516128b38184602088016121cc565b8351908301906128c78183602088016121cc565b01949350505050565b60208082526025908201527f4552433732313a207472616e736665722066726f6d20696e636f72726563742060408201526437bbb732b960d91b606082015260800190565b60208082526032908201527f4552433732313a207472616e7366657220746f206e6f6e20455243373231526560408201527131b2b4bb32b91034b6b83632b6b2b73a32b960711b606082015260800190565b60008261298457634e487b7160e01b600052601260045260246000fd5b500490565b6001600160a01b03858116825284166020820152604081018390526080606082018190526000906129bc908301846121f0565b9695505050505050565b6000602082840312156129d857600080fd5b81516105eb8161215e565b634e487b7160e01b600052603160045260246000fdfea264697066735822122089e92acf173ffb1c9d77517fa991fcfedc94cb66c3331dd67bac3b9ed30297fc64736f6c63430008130033","opcodes":"PUSH1 0x80 PUSH1 0x40 MSTORE PUSH2 0x2710 PUSH1 0x8 SSTORE CALLVALUE DUP1 ISZERO PUSH3 0x17 JUMPI PUSH1 0x0 DUP1 REVERT JUMPDEST POP PUSH1 0x40 MLOAD PUSH3 0x2D31 CODESIZE SUB DUP1 PUSH3 0x2D31 DUP4 CODECOPY DUP2 ADD PUSH1 0x40 DUP2 SWAP1 MSTORE PUSH3 0x3A SWAP2 PUSH3 0x12D JUMP JUMPDEST DUP2 DUP2 DUP2 DUP2 PUSH1 0x0 PUSH3 0x4C DUP4 DUP3 PUSH3 0x226 JUMP JUMPDEST POP PUSH1 0x1 PUSH3 0x5B DUP3 DUP3 PUSH3 0x226 JUMP JUMPDEST POP POP POP POP POP POP POP PUSH3 0x2F2 JUMP JUMPDEST PUSH4 0x4E487B71 PUSH1 0xE0 SHL PUSH1 0x0 MSTORE PUSH1 0x41 PUSH1 0x4 MSTORE PUSH1 0x24 PUSH1 0x0 REVERT JUMPDEST PUSH1 0x0 DUP3 PUSH1 0x1F DUP4 ADD SLT PUSH3 0x90 JUMPI PUSH1 0x0 DUP1 REVERT JUMPDEST DUP2 MLOAD PUSH1 0x1 PUSH1 0x1 PUSH1 0x40 SHL SUB DUP1 DUP3 GT ISZERO PUSH3 0xAD JUMPI PUSH3 0xAD PUSH3 0x68 JUMP JUMPDEST PUSH1 0x40 MLOAD PUSH1 0x1F DUP4 ADD PUSH1 0x1F NOT SWAP1 DUP2 AND PUSH1 0x3F ADD AND DUP2 ADD SWAP1 DUP3 DUP3 GT DUP2 DUP4 LT OR ISZERO PUSH3 0xD8 JUMPI PUSH3 0xD8 PUSH3 0x68 JUMP JUMPDEST DUP2 PUSH1 0x40 MSTORE DUP4 DUP2 MSTORE PUSH1 0x20 SWAP3 POP DUP7 DUP4 DUP6 DUP9 ADD ADD GT ISZERO PUSH3 0xF5 JUMPI PUSH1 0x0 DUP1 REVERT JUMPDEST PUSH1 0x0 SWAP2 POP JUMPDEST DUP4 DUP3 LT ISZERO PUSH3 0x119 JUMPI DUP6 DUP3 ADD DUP4 ADD MLOAD DUP2 DUP4 ADD DUP5 ADD MSTORE SWAP1 DUP3 ADD SWAP1 PUSH3 0xFA JUMP JUMPDEST PUSH1 0x0 SWAP4 DUP2 ADD SWAP1 SWAP3 ADD SWAP3 SWAP1 SWAP3 MSTORE SWAP5 SWAP4 POP POP POP POP JUMP JUMPDEST PUSH1 0x0 DUP1 PUSH1 0x40 DUP4 DUP6 SUB SLT ISZERO PUSH3 0x141 JUMPI PUSH1 0x0 DUP1 REVERT JUMPDEST DUP3 MLOAD PUSH1 0x1 PUSH1 0x1 PUSH1 0x40 SHL SUB DUP1 DUP3 GT ISZERO PUSH3 0x159 JUMPI PUSH1 0x0 DUP1 REVERT JUMPDEST PUSH3 0x167 DUP7 DUP4 DUP8 ADD PUSH3 0x7E JUMP JUMPDEST SWAP4 POP PUSH1 0x20 DUP6 ADD MLOAD SWAP2 POP DUP1 DUP3 GT ISZERO PUSH3 0x17E JUMPI PUSH1 0x0 DUP1 REVERT JUMPDEST POP PUSH3 0x18D DUP6 DUP3 DUP7 ADD PUSH3 0x7E JUMP JUMPDEST SWAP2 POP POP SWAP3 POP SWAP3 SWAP1 POP JUMP JUMPDEST PUSH1 0x1 DUP2 DUP2 SHR SWAP1 DUP3 AND DUP1 PUSH3 0x1AC JUMPI PUSH1 0x7F DUP3 AND SWAP2 POP JUMPDEST PUSH1 0x20 DUP3 LT DUP2 SUB PUSH3 0x1CD JUMPI PUSH4 0x4E487B71 PUSH1 0xE0 SHL PUSH1 0x0 MSTORE PUSH1 0x22 PUSH1 0x4 MSTORE PUSH1 0x24 PUSH1 0x0 REVERT JUMPDEST POP SWAP2 SWAP1 POP JUMP JUMPDEST PUSH1 0x1F DUP3 GT ISZERO PUSH3 0x221 JUMPI PUSH1 0x0 DUP2 DUP2 MSTORE PUSH1 0x20 DUP2 KECCAK256 PUSH1 0x1F DUP6 ADD PUSH1 0x5 SHR DUP2 ADD PUSH1 0x20 DUP7 LT ISZERO PUSH3 0x1FC JUMPI POP DUP1 JUMPDEST PUSH1 0x1F DUP6 ADD PUSH1 0x5 SHR DUP3 ADD SWAP2 POP JUMPDEST DUP2 DUP2 LT ISZERO PUSH3 0x21D JUMPI DUP3 DUP2 SSTORE PUSH1 0x1 ADD PUSH3 0x208 JUMP JUMPDEST POP POP POP JUMPDEST POP POP POP JUMP JUMPDEST DUP2 MLOAD PUSH1 0x1 PUSH1 0x1 PUSH1 0x40 SHL SUB DUP2 GT ISZERO PUSH3 0x242 JUMPI PUSH3 0x242 PUSH3 0x68 JUMP JUMPDEST PUSH3 0x25A DUP2 PUSH3 0x253 DUP5 SLOAD PUSH3 0x197 JUMP JUMPDEST DUP5 PUSH3 0x1D3 JUMP JUMPDEST PUSH1 0x20 DUP1 PUSH1 0x1F DUP4 GT PUSH1 0x1 DUP2 EQ PUSH3 0x292 JUMPI PUSH1 0x0 DUP5 ISZERO PUSH3 0x279 JUMPI POP DUP6 DUP4 ADD MLOAD JUMPDEST PUSH1 0x0 NOT PUSH1 0x3 DUP7 SWAP1 SHL SHR NOT AND PUSH1 0x1 DUP6 SWAP1 SHL OR DUP6 SSTORE PUSH3 0x21D JUMP JUMPDEST PUSH1 0x0 DUP6 DUP2 MSTORE PUSH1 0x20 DUP2 KECCAK256 PUSH1 0x1F NOT DUP7 AND SWAP2 JUMPDEST DUP3 DUP2 LT ISZERO PUSH3 0x2C3 JUMPI DUP9 DUP7 ADD MLOAD DUP3 SSTORE SWAP5 DUP5 ADD SWAP5 PUSH1 0x1 SWAP1 SWAP2 ADD SWAP1 DUP5 ADD PUSH3 0x2A2 JUMP JUMPDEST POP DUP6 DUP3 LT ISZERO PUSH3 0x2E2 JUMPI DUP8 DUP6 ADD MLOAD PUSH1 0x0 NOT PUSH1 0x3 DUP9 SWAP1 SHL PUSH1 0xF8 AND SHR NOT AND DUP2 SSTORE JUMPDEST POP POP POP POP POP PUSH1 0x1 SWAP1 DUP2 SHL ADD SWAP1 SSTORE POP JUMP JUMPDEST PUSH2 0x2A2F DUP1 PUSH3 0x302 PUSH1 0x0 CODECOPY PUSH1 0x0 RETURN INVALID PUSH1 0x80 PUSH1 0x40 MSTORE CALLVALUE DUP1 ISZERO PUSH2 0x10 JUMPI PUSH1 0x0 DUP1 REVERT JUMPDEST POP PUSH1 0x4 CALLDATASIZE LT PUSH2 0x206 JUMPI PUSH1 0x0 CALLDATALOAD PUSH1 0xE0 SHR DUP1 PUSH4 0x70A08231 GT PUSH2 0x11A JUMPI DUP1 PUSH4 0xB51BEB93 GT PUSH2 0xAD JUMPI DUP1 PUSH4 0xC87B56DD GT PUSH2 0x7C JUMPI DUP1 PUSH4 0xC87B56DD EQ PUSH2 0x48F JUMPI DUP1 PUSH4 0xD4FA5203 EQ PUSH2 0x4A2 JUMPI DUP1 PUSH4 0xDC36E281 EQ PUSH2 0x4B5 JUMPI DUP1 PUSH4 0xE985E9C5 EQ PUSH2 0x4C8 JUMPI DUP1 PUSH4 0xF43D0A38 EQ PUSH2 0x504 JUMPI PUSH1 0x0 DUP1 REVERT JUMPDEST DUP1 PUSH4 0xB51BEB93 EQ PUSH2 0x436 JUMPI DUP1 PUSH4 0xB88D4FDE EQ PUSH2 0x456 JUMPI DUP1 PUSH4 0xBA108F50 EQ PUSH2 0x469 JUMPI DUP1 PUSH4 0xC71CA216 EQ PUSH2 0x47C JUMPI PUSH1 0x0 DUP1 REVERT JUMPDEST DUP1 PUSH4 0x94BF804D GT PUSH2 0xE9 JUMPI DUP1 PUSH4 0x94BF804D EQ PUSH2 0x400 JUMPI DUP1 PUSH4 0x95D89B41 EQ PUSH2 0x413 JUMPI DUP1 PUSH4 0x9A96F0B1 EQ PUSH2 0x41B JUMPI DUP1 PUSH4 0xA22CB465 EQ PUSH2 0x423 JUMPI PUSH1 0x0 DUP1 REVERT JUMPDEST DUP1 PUSH4 0x70A08231 EQ PUSH2 0x3A1 JUMPI DUP1 PUSH4 0x75CFBE6C EQ PUSH2 0x3B4 JUMPI DUP1 PUSH4 0x84E4735F EQ PUSH2 0x3C7 JUMPI DUP1 PUSH4 0x919500C0 EQ PUSH2 0x3DA JUMPI PUSH1 0x0 DUP1 REVERT JUMPDEST DUP1 PUSH4 0x2565B159 GT PUSH2 0x19D JUMPI DUP1 PUSH4 0x3C5640F2 GT PUSH2 0x16C JUMPI DUP1 PUSH4 0x3C5640F2 EQ PUSH2 0x340 JUMPI DUP1 PUSH4 0x42842E0E EQ PUSH2 0x353 JUMPI DUP1 PUSH4 0x4F6CCCE7 EQ PUSH2 0x366 JUMPI DUP1 PUSH4 0x6352211E EQ PUSH2 0x379 JUMPI DUP1 PUSH4 0x6B9241FC EQ PUSH2 0x38C JUMPI PUSH1 0x0 DUP1 REVERT JUMPDEST DUP1 PUSH4 0x2565B159 EQ PUSH2 0x2D3 JUMPI DUP1 PUSH4 0x2F745C59 EQ PUSH2 0x2DC JUMPI DUP1 PUSH4 0x31580311 EQ PUSH2 0x2EF JUMPI DUP1 PUSH4 0x3A939A9A EQ PUSH2 0x317 JUMPI PUSH1 0x0 DUP1 REVERT JUMPDEST DUP1 PUSH4 0x81812FC GT PUSH2 0x1D9 JUMPI DUP1 PUSH4 0x81812FC EQ PUSH2 0x286 JUMPI DUP1 PUSH4 0x95EA7B3 EQ PUSH2 0x299 JUMPI DUP1 PUSH4 0x18160DDD EQ PUSH2 0x2AE JUMPI DUP1 PUSH4 0x23B872DD EQ PUSH2 0x2C0 JUMPI PUSH1 0x0 DUP1 REVERT JUMPDEST DUP1 PUSH4 0x1FFC9A7 EQ PUSH2 0x20B JUMPI DUP1 PUSH4 0x343D2A0 EQ PUSH2 0x233 JUMPI DUP1 PUSH4 0x51A2664 EQ PUSH2 0x25E JUMPI DUP1 PUSH4 0x6FDDE03 EQ PUSH2 0x27E JUMPI JUMPDEST PUSH1 0x0 DUP1 REVERT JUMPDEST PUSH2 0x21E PUSH2 0x219 CALLDATASIZE PUSH1 0x4 PUSH2 0x2174 JUMP JUMPDEST PUSH2 0x517 JUMP JUMPDEST PUSH1 0x40 MLOAD SWAP1 ISZERO ISZERO DUP2 MSTORE PUSH1 0x20 ADD JUMPDEST PUSH1 0x40 MLOAD DUP1 SWAP2 SUB SWAP1 RETURN JUMPDEST PUSH2 0x246 PUSH2 0x241 CALLDATASIZE PUSH1 0x4 PUSH2 0x2191 JUMP JUMPDEST PUSH2 0x542 JUMP JUMPDEST PUSH1 0x40 MLOAD PUSH1 0x1 PUSH1 0x1 PUSH1 0xA0 SHL SUB SWAP1 SWAP2 AND DUP2 MSTORE PUSH1 0x20 ADD PUSH2 0x22A JUMP JUMPDEST PUSH2 0x271 PUSH2 0x26C CALLDATASIZE PUSH1 0x4 PUSH2 0x21B3 JUMP JUMPDEST PUSH2 0x5F2 JUMP JUMPDEST PUSH1 0x40 MLOAD PUSH2 0x22A SWAP2 SWAP1 PUSH2 0x221C JUMP JUMPDEST PUSH2 0x271 PUSH2 0x697 JUMP JUMPDEST PUSH2 0x246 PUSH2 0x294 CALLDATASIZE PUSH1 0x4 PUSH2 0x21B3 JUMP JUMPDEST PUSH2 0x729 JUMP JUMPDEST PUSH2 0x2AC PUSH2 0x2A7 CALLDATASIZE PUSH1 0x4 PUSH2 0x224B JUMP JUMPDEST PUSH2 0x750 JUMP JUMPDEST STOP JUMPDEST PUSH1 0xC SLOAD JUMPDEST PUSH1 0x40 MLOAD SWAP1 DUP2 MSTORE PUSH1 0x20 ADD PUSH2 0x22A JUMP JUMPDEST PUSH2 0x2AC PUSH2 0x2CE CALLDATASIZE PUSH1 0x4 PUSH2 0x2275 JUMP JUMPDEST PUSH2 0x86A JUMP JUMPDEST PUSH2 0x2B2 PUSH1 0x8 SLOAD DUP2 JUMP JUMPDEST PUSH2 0x2B2 PUSH2 0x2EA CALLDATASIZE PUSH1 0x4 PUSH2 0x224B JUMP JUMPDEST PUSH2 0x89B JUMP JUMPDEST PUSH2 0x302 PUSH2 0x2FD CALLDATASIZE PUSH1 0x4 PUSH2 0x21B3 JUMP JUMPDEST PUSH2 0x931 JUMP JUMPDEST PUSH1 0x40 DUP1 MLOAD SWAP3 DUP4 MSTORE PUSH1 0x20 DUP4 ADD SWAP2 SWAP1 SWAP2 MSTORE ADD PUSH2 0x22A JUMP JUMPDEST PUSH2 0x246 PUSH2 0x325 CALLDATASIZE PUSH1 0x4 PUSH2 0x21B3 JUMP JUMPDEST PUSH1 0x0 SWAP1 DUP2 MSTORE PUSH1 0x6 PUSH1 0x20 MSTORE PUSH1 0x40 SWAP1 KECCAK256 SLOAD PUSH1 0x1 PUSH1 0x1 PUSH1 0xA0 SHL SUB AND SWAP1 JUMP JUMPDEST PUSH2 0x2B2 PUSH2 0x34E CALLDATASIZE PUSH1 0x4 PUSH2 0x224B JUMP JUMPDEST PUSH2 0x982 JUMP JUMPDEST PUSH2 0x2AC PUSH2 0x361 CALLDATASIZE PUSH1 0x4 PUSH2 0x2275 JUMP JUMPDEST PUSH2 0xA02 JUMP JUMPDEST PUSH2 0x2B2 PUSH2 0x374 CALLDATASIZE PUSH1 0x4 PUSH2 0x21B3 JUMP JUMPDEST PUSH2 0xA1D JUMP JUMPDEST PUSH2 0x246 PUSH2 0x387 CALLDATASIZE PUSH1 0x4 PUSH2 0x21B3 JUMP JUMPDEST PUSH2 0xAB0 JUMP JUMPDEST PUSH1 0x40 MLOAD PUSH4 0x1E2B2079 PUSH1 0xE1 SHL DUP2 MSTORE PUSH1 0x20 ADD PUSH2 0x22A JUMP JUMPDEST PUSH2 0x2B2 PUSH2 0x3AF CALLDATASIZE PUSH1 0x4 PUSH2 0x22B1 JUMP JUMPDEST PUSH2 0xB10 JUMP JUMPDEST PUSH2 0x271 PUSH2 0x3C2 CALLDATASIZE PUSH1 0x4 PUSH2 0x21B3 JUMP JUMPDEST PUSH2 0xB96 JUMP JUMPDEST PUSH2 0x2AC PUSH2 0x3D5 CALLDATASIZE PUSH1 0x4 PUSH2 0x2378 JUMP JUMPDEST PUSH2 0xBB6 JUMP JUMPDEST PUSH2 0x3ED PUSH2 0x3E8 CALLDATASIZE PUSH1 0x4 PUSH2 0x21B3 JUMP JUMPDEST PUSH2 0xE3F JUMP JUMPDEST PUSH1 0x40 MLOAD PUSH2 0x22A SWAP8 SWAP7 SWAP6 SWAP5 SWAP4 SWAP3 SWAP2 SWAP1 PUSH2 0x241B JUMP JUMPDEST PUSH2 0x2AC PUSH2 0x40E CALLDATASIZE PUSH1 0x4 PUSH2 0x248F JUMP JUMPDEST PUSH2 0x102D JUMP JUMPDEST PUSH2 0x271 PUSH2 0x1172 JUMP JUMPDEST PUSH1 0x9 SLOAD PUSH2 0x2B2 JUMP JUMPDEST PUSH2 0x2AC PUSH2 0x431 CALLDATASIZE PUSH1 0x4 PUSH2 0x24BB JUMP JUMPDEST PUSH2 0x1181 JUMP JUMPDEST PUSH2 0x449 PUSH2 0x444 CALLDATASIZE PUSH1 0x4 PUSH2 0x22B1 JUMP JUMPDEST PUSH2 0x118C JUMP JUMPDEST PUSH1 0x40 MLOAD PUSH2 0x22A SWAP2 SWAP1 PUSH2 0x24F7 JUMP JUMPDEST PUSH2 0x2AC PUSH2 0x464 CALLDATASIZE PUSH1 0x4 PUSH2 0x253B JUMP JUMPDEST PUSH2 0x11F7 JUMP JUMPDEST PUSH2 0x2B2 PUSH2 0x477 CALLDATASIZE PUSH1 0x4 PUSH2 0x21B3 JUMP JUMPDEST PUSH2 0x122F JUMP JUMPDEST PUSH2 0x2AC PUSH2 0x48A CALLDATASIZE PUSH1 0x4 PUSH2 0x248F JUMP JUMPDEST PUSH2 0x126A JUMP JUMPDEST PUSH2 0x271 PUSH2 0x49D CALLDATASIZE PUSH1 0x4 PUSH2 0x21B3 JUMP JUMPDEST PUSH2 0x1321 JUMP JUMPDEST PUSH2 0x2B2 PUSH2 0x4B0 CALLDATASIZE PUSH1 0x4 PUSH2 0x224B JUMP JUMPDEST PUSH2 0x1465 JUMP JUMPDEST PUSH2 0x2B2 PUSH2 0x4C3 CALLDATASIZE PUSH1 0x4 PUSH2 0x21B3 JUMP JUMPDEST PUSH2 0x1496 JUMP JUMPDEST PUSH2 0x21E PUSH2 0x4D6 CALLDATASIZE PUSH1 0x4 PUSH2 0x25B7 JUMP JUMPDEST PUSH1 0x1 PUSH1 0x1 PUSH1 0xA0 SHL SUB SWAP2 DUP3 AND PUSH1 0x0 SWAP1 DUP2 MSTORE PUSH1 0x5 PUSH1 0x20 SWAP1 DUP2 MSTORE PUSH1 0x40 DUP1 DUP4 KECCAK256 SWAP4 SWAP1 SWAP5 AND DUP3 MSTORE SWAP2 SWAP1 SWAP2 MSTORE KECCAK256 SLOAD PUSH1 0xFF AND SWAP1 JUMP JUMPDEST PUSH2 0x2B2 PUSH2 0x512 CALLDATASIZE PUSH1 0x4 PUSH2 0x21B3 JUMP JUMPDEST PUSH2 0x14C6 JUMP JUMPDEST PUSH1 0x0 PUSH4 0x1E2B2079 PUSH1 0xE1 SHL PUSH1 0x1 PUSH1 0x1 PUSH1 0xE0 SHL SUB NOT DUP4 AND EQ DUP1 PUSH2 0x53C JUMPI POP PUSH2 0x53C DUP3 PUSH2 0x152A JUMP JUMPDEST SWAP3 SWAP2 POP POP JUMP JUMPDEST PUSH1 0x0 DUP2 DUP2 MSTORE PUSH1 0x6 PUSH1 0x20 MSTORE PUSH1 0x40 DUP2 KECCAK256 SLOAD PUSH1 0x1 PUSH1 0x1 PUSH1 0xA0 SHL SUB AND PUSH2 0x577 JUMPI PUSH1 0x40 MLOAD PUSH4 0x1EAEBD19 PUSH1 0xE1 SHL DUP2 MSTORE PUSH1 0x4 ADD PUSH1 0x40 MLOAD DUP1 SWAP2 SUB SWAP1 REVERT JUMPDEST PUSH1 0x0 DUP3 DUP2 MSTORE PUSH1 0x6 PUSH1 0x20 MSTORE PUSH1 0x40 SWAP1 KECCAK256 SLOAD PUSH1 0x1 PUSH1 0xA0 SHL SWAP1 DIV PUSH4 0xFFFFFFFF AND DUP4 GT ISZERO PUSH2 0x5B3 JUMPI PUSH1 0x40 MLOAD PUSH4 0x677510DB PUSH1 0xE1 SHL DUP2 MSTORE PUSH1 0x4 ADD PUSH1 0x40 MLOAD DUP1 SWAP2 SUB SWAP1 REVERT JUMPDEST PUSH1 0x0 DUP3 DUP2 MSTORE PUSH1 0x6 PUSH1 0x20 MSTORE PUSH1 0x40 SWAP1 KECCAK256 SLOAD PUSH2 0x5EB SWAP1 PUSH1 0x1 SWAP1 PUSH2 0x5E1 SWAP1 DUP7 SWAP1 PUSH1 0x1 PUSH1 0xC0 SHL SWAP1 DIV PUSH4 0xFFFFFFFF AND PUSH2 0x25F7 JUMP JUMPDEST PUSH2 0x387 SWAP2 SWAP1 PUSH2 0x260A JUMP JUMPDEST SWAP4 SWAP3 POP POP POP JUMP JUMPDEST PUSH1 0x0 DUP2 DUP2 MSTORE PUSH1 0x6 PUSH1 0x20 MSTORE PUSH1 0x40 SWAP1 KECCAK256 PUSH1 0x1 ADD DUP1 SLOAD PUSH1 0x60 SWAP2 SWAP1 PUSH2 0x612 SWAP1 PUSH2 0x261D JUMP JUMPDEST DUP1 PUSH1 0x1F ADD PUSH1 0x20 DUP1 SWAP2 DIV MUL PUSH1 0x20 ADD PUSH1 0x40 MLOAD SWAP1 DUP2 ADD PUSH1 0x40 MSTORE DUP1 SWAP3 SWAP2 SWAP1 DUP2 DUP2 MSTORE PUSH1 0x20 ADD DUP3 DUP1 SLOAD PUSH2 0x63E SWAP1 PUSH2 0x261D JUMP JUMPDEST DUP1 ISZERO PUSH2 0x68B JUMPI DUP1 PUSH1 0x1F LT PUSH2 0x660 JUMPI PUSH2 0x100 DUP1 DUP4 SLOAD DIV MUL DUP4 MSTORE SWAP2 PUSH1 0x20 ADD SWAP2 PUSH2 0x68B JUMP JUMPDEST DUP3 ADD SWAP2 SWAP1 PUSH1 0x0 MSTORE PUSH1 0x20 PUSH1 0x0 KECCAK256 SWAP1 JUMPDEST DUP2 SLOAD DUP2 MSTORE SWAP1 PUSH1 0x1 ADD SWAP1 PUSH1 0x20 ADD DUP1 DUP4 GT PUSH2 0x66E JUMPI DUP3 SWAP1 SUB PUSH1 0x1F AND DUP3 ADD SWAP2 JUMPDEST POP POP POP POP POP SWAP1 POP SWAP2 SWAP1 POP JUMP JUMPDEST PUSH1 0x60 PUSH1 0x0 DUP1 SLOAD PUSH2 0x6A6 SWAP1 PUSH2 0x261D JUMP JUMPDEST DUP1 PUSH1 0x1F ADD PUSH1 0x20 DUP1 SWAP2 DIV MUL PUSH1 0x20 ADD PUSH1 0x40 MLOAD SWAP1 DUP2 ADD PUSH1 0x40 MSTORE DUP1 SWAP3 SWAP2 SWAP1 DUP2 DUP2 MSTORE PUSH1 0x20 ADD DUP3 DUP1 SLOAD PUSH2 0x6D2 SWAP1 PUSH2 0x261D JUMP JUMPDEST DUP1 ISZERO PUSH2 0x71F JUMPI DUP1 PUSH1 0x1F LT PUSH2 0x6F4 JUMPI PUSH2 0x100 DUP1 DUP4 SLOAD DIV MUL DUP4 MSTORE SWAP2 PUSH1 0x20 ADD SWAP2 PUSH2 0x71F JUMP JUMPDEST DUP3 ADD SWAP2 SWAP1 PUSH1 0x0 MSTORE PUSH1 0x20 PUSH1 0x0 KECCAK256 SWAP1 JUMPDEST DUP2 SLOAD DUP2 MSTORE SWAP1 PUSH1 0x1 ADD SWAP1 PUSH1 0x20 ADD DUP1 DUP4 GT PUSH2 0x702 JUMPI DUP3 SWAP1 SUB PUSH1 0x1F AND DUP3 ADD SWAP2 JUMPDEST POP POP POP POP POP SWAP1 POP SWAP1 JUMP JUMPDEST PUSH1 0x0 PUSH2 0x734 DUP3 PUSH2 0x154F JUMP JUMPDEST POP PUSH1 0x0 SWAP1 DUP2 MSTORE PUSH1 0x4 PUSH1 0x20 MSTORE PUSH1 0x40 SWAP1 KECCAK256 SLOAD PUSH1 0x1 PUSH1 0x1 PUSH1 0xA0 SHL SUB AND SWAP1 JUMP JUMPDEST PUSH1 0x0 PUSH2 0x75B DUP3 PUSH2 0xAB0 JUMP JUMPDEST SWAP1 POP DUP1 PUSH1 0x1 PUSH1 0x1 PUSH1 0xA0 SHL SUB AND DUP4 PUSH1 0x1 PUSH1 0x1 PUSH1 0xA0 SHL SUB AND SUB PUSH2 0x7CD JUMPI PUSH1 0x40 MLOAD PUSH3 0x461BCD PUSH1 0xE5 SHL DUP2 MSTORE PUSH1 0x20 PUSH1 0x4 DUP3 ADD MSTORE PUSH1 0x21 PUSH1 0x24 DUP3 ADD MSTORE PUSH32 0x4552433732313A20617070726F76616C20746F2063757272656E74206F776E65 PUSH1 0x44 DUP3 ADD MSTORE PUSH1 0x39 PUSH1 0xF9 SHL PUSH1 0x64 DUP3 ADD MSTORE PUSH1 0x84 ADD JUMPDEST PUSH1 0x40 MLOAD DUP1 SWAP2 SUB SWAP1 REVERT JUMPDEST CALLER PUSH1 0x1 PUSH1 0x1 PUSH1 0xA0 SHL SUB DUP3 AND EQ DUP1 PUSH2 0x7E9 JUMPI POP PUSH2 0x7E9 DUP2 CALLER PUSH2 0x4D6 JUMP JUMPDEST PUSH2 0x85B JUMPI PUSH1 0x40 MLOAD PUSH3 0x461BCD PUSH1 0xE5 SHL DUP2 MSTORE PUSH1 0x20 PUSH1 0x4 DUP3 ADD MSTORE PUSH1 0x3D PUSH1 0x24 DUP3 ADD MSTORE PUSH32 0x4552433732313A20617070726F76652063616C6C6572206973206E6F7420746F PUSH1 0x44 DUP3 ADD MSTORE PUSH32 0x6B656E206F776E6572206F7220617070726F76656420666F7220616C6C000000 PUSH1 0x64 DUP3 ADD MSTORE PUSH1 0x84 ADD PUSH2 0x7C4 JUMP JUMPDEST PUSH2 0x865 DUP4 DUP4 PUSH2 0x15B1 JUMP JUMPDEST POP POP POP JUMP JUMPDEST PUSH2 0x874 CALLER DUP3 PUSH2 0x161F JUMP JUMPDEST PUSH2 0x890 JUMPI PUSH1 0x40 MLOAD PUSH3 0x461BCD PUSH1 0xE5 SHL DUP2 MSTORE PUSH1 0x4 ADD PUSH2 0x7C4 SWAP1 PUSH2 0x2657 JUMP JUMPDEST PUSH2 0x865 DUP4 DUP4 DUP4 PUSH2 0x169D JUMP JUMPDEST PUSH1 0x0 PUSH2 0x8A6 DUP4 PUSH2 0xB10 JUMP JUMPDEST DUP3 LT PUSH2 0x908 JUMPI PUSH1 0x40 MLOAD PUSH3 0x461BCD PUSH1 0xE5 SHL DUP2 MSTORE PUSH1 0x20 PUSH1 0x4 DUP3 ADD MSTORE PUSH1 0x2B PUSH1 0x24 DUP3 ADD MSTORE PUSH32 0x455243373231456E756D657261626C653A206F776E657220696E646578206F75 PUSH1 0x44 DUP3 ADD MSTORE PUSH11 0x74206F6620626F756E6473 PUSH1 0xA8 SHL PUSH1 0x64 DUP3 ADD MSTORE PUSH1 0x84 ADD PUSH2 0x7C4 JUMP JUMPDEST POP PUSH1 0x1 PUSH1 0x1 PUSH1 0xA0 SHL SUB SWAP2 SWAP1 SWAP2 AND PUSH1 0x0 SWAP1 DUP2 MSTORE PUSH1 0xA PUSH1 0x20 SWAP1 DUP2 MSTORE PUSH1 0x40 DUP1 DUP4 KECCAK256 SWAP4 DUP4 MSTORE SWAP3 SWAP1 MSTORE KECCAK256 SLOAD SWAP1 JUMP JUMPDEST PUSH1 0x0 DUP2 DUP2 MSTORE PUSH1 0x6 PUSH1 0x20 MSTORE PUSH1 0x40 DUP2 KECCAK256 SLOAD DUP2 SWAP1 PUSH4 0xFFFFFFFF PUSH1 0x1 PUSH1 0xC0 SHL DUP3 DIV DUP2 AND SWAP2 PUSH1 0x1 SWAP2 PUSH2 0x966 SWAP2 PUSH1 0x1 PUSH1 0xA0 SHL SWAP1 DIV AND DUP4 PUSH2 0x26A4 JUMP JUMPDEST PUSH2 0x970 SWAP2 SWAP1 PUSH2 0x26C8 JUMP JUMPDEST PUSH4 0xFFFFFFFF SWAP2 DUP3 AND SWAP6 SWAP2 AND SWAP4 POP SWAP2 POP POP JUMP JUMPDEST PUSH1 0x0 DUP1 PUSH2 0x98E DUP5 PUSH2 0xB10 JUMP JUMPDEST SWAP1 POP DUP1 ISZERO PUSH2 0x5EB JUMPI PUSH1 0x0 DUP1 DUP1 PUSH2 0x9A3 DUP7 PUSH2 0x931 JUMP JUMPDEST SWAP2 POP SWAP2 POP PUSH1 0x0 JUMPDEST DUP5 DUP2 LT ISZERO PUSH2 0x9F6 JUMPI PUSH1 0x0 PUSH2 0x9BE DUP10 DUP4 PUSH2 0x89B JUMP JUMPDEST SWAP1 POP DUP4 DUP2 LT ISZERO DUP1 ISZERO PUSH2 0x9D0 JUMPI POP DUP3 DUP2 GT ISZERO JUMPDEST ISZERO PUSH2 0x9E3 JUMPI DUP5 PUSH2 0x9DF DUP2 PUSH2 0x26E5 JUMP JUMPDEST SWAP6 POP POP JUMPDEST POP DUP1 PUSH2 0x9EE DUP2 PUSH2 0x26E5 JUMP JUMPDEST SWAP2 POP POP PUSH2 0x9AA JUMP JUMPDEST POP SWAP2 SWAP7 SWAP6 POP POP POP POP POP POP JUMP JUMPDEST PUSH2 0x865 DUP4 DUP4 DUP4 PUSH1 0x40 MLOAD DUP1 PUSH1 0x20 ADD PUSH1 0x40 MSTORE DUP1 PUSH1 0x0 DUP2 MSTORE POP PUSH2 0x11F7 JUMP JUMPDEST PUSH1 0x0 PUSH2 0xA28 PUSH1 0xC SLOAD SWAP1 JUMP JUMPDEST DUP3 LT PUSH2 0xA8B JUMPI PUSH1 0x40 MLOAD PUSH3 0x461BCD PUSH1 0xE5 SHL DUP2 MSTORE PUSH1 0x20 PUSH1 0x4 DUP3 ADD MSTORE PUSH1 0x2C PUSH1 0x24 DUP3 ADD MSTORE PUSH32 0x455243373231456E756D657261626C653A20676C6F62616C20696E646578206F PUSH1 0x44 DUP3 ADD MSTORE PUSH12 0x7574206F6620626F756E6473 PUSH1 0xA0 SHL PUSH1 0x64 DUP3 ADD MSTORE PUSH1 0x84 ADD PUSH2 0x7C4 JUMP JUMPDEST PUSH1 0xC DUP3 DUP2 SLOAD DUP2 LT PUSH2 0xA9E JUMPI PUSH2 0xA9E PUSH2 0x26FE JUMP JUMPDEST SWAP1 PUSH1 0x0 MSTORE PUSH1 0x20 PUSH1 0x0 KECCAK256 ADD SLOAD SWAP1 POP SWAP2 SWAP1 POP JUMP JUMPDEST PUSH1 0x0 DUP2 DUP2 MSTORE PUSH1 0x2 PUSH1 0x20 MSTORE PUSH1 0x40 DUP2 KECCAK256 SLOAD PUSH1 0x1 PUSH1 0x1 PUSH1 0xA0 SHL SUB AND DUP1 PUSH2 0x53C JUMPI PUSH1 0x40 MLOAD PUSH3 0x461BCD PUSH1 0xE5 SHL DUP2 MSTORE PUSH1 0x20 PUSH1 0x4 DUP3 ADD MSTORE PUSH1 0x18 PUSH1 0x24 DUP3 ADD MSTORE PUSH24 0x115490CDCC8C4E881A5B9D985B1A59081D1BDAD95B881251 PUSH1 0x42 SHL PUSH1 0x44 DUP3 ADD MSTORE PUSH1 0x64 ADD PUSH2 0x7C4 JUMP JUMPDEST PUSH1 0x0 PUSH1 0x1 PUSH1 0x1 PUSH1 0xA0 SHL SUB DUP3 AND PUSH2 0xB7A JUMPI PUSH1 0x40 MLOAD PUSH3 0x461BCD PUSH1 0xE5 SHL DUP2 MSTORE PUSH1 0x20 PUSH1 0x4 DUP3 ADD MSTORE PUSH1 0x29 PUSH1 0x24 DUP3 ADD MSTORE PUSH32 0x4552433732313A2061646472657373207A65726F206973206E6F742061207661 PUSH1 0x44 DUP3 ADD MSTORE PUSH9 0x3634B21037BBB732B9 PUSH1 0xB9 SHL PUSH1 0x64 DUP3 ADD MSTORE PUSH1 0x84 ADD PUSH2 0x7C4 JUMP JUMPDEST POP PUSH1 0x1 PUSH1 0x1 PUSH1 0xA0 SHL SUB AND PUSH1 0x0 SWAP1 DUP2 MSTORE PUSH1 0x3 PUSH1 0x20 MSTORE PUSH1 0x40 SWAP1 KECCAK256 SLOAD SWAP1 JUMP JUMPDEST PUSH1 0x0 DUP2 DUP2 MSTORE PUSH1 0x6 PUSH1 0x20 MSTORE PUSH1 0x40 SWAP1 KECCAK256 PUSH1 0x2 ADD DUP1 SLOAD PUSH1 0x60 SWAP2 SWAP1 PUSH2 0x612 SWAP1 PUSH2 0x261D JUMP JUMPDEST PUSH1 0x1 PUSH1 0x1 PUSH1 0xA0 SHL SUB DUP2 AND PUSH2 0xBDD JUMPI PUSH1 0x40 MLOAD PUSH4 0xD92E233D PUSH1 0xE0 SHL DUP2 MSTORE PUSH1 0x4 ADD PUSH1 0x40 MLOAD DUP1 SWAP2 SUB SWAP1 REVERT JUMPDEST PUSH1 0x8 SLOAD DUP3 GT ISZERO PUSH2 0xC00 JUMPI PUSH1 0x40 MLOAD PUSH4 0x33DE1F1 PUSH1 0xE2 SHL DUP2 MSTORE PUSH1 0x4 ADD PUSH1 0x40 MLOAD DUP1 SWAP2 SUB SWAP1 REVERT JUMPDEST PUSH1 0x9 SLOAD PUSH1 0x0 SWAP1 ISZERO PUSH2 0xC90 JUMPI PUSH1 0x1 PUSH1 0x6 PUSH1 0x0 PUSH1 0x1 PUSH1 0x9 SLOAD PUSH2 0xC20 SWAP2 SWAP1 PUSH2 0x260A JUMP JUMPDEST DUP2 MSTORE PUSH1 0x20 ADD SWAP1 DUP2 MSTORE PUSH1 0x20 ADD PUSH1 0x0 KECCAK256 PUSH1 0x0 ADD PUSH1 0x14 SWAP1 SLOAD SWAP1 PUSH2 0x100 EXP SWAP1 DIV PUSH4 0xFFFFFFFF AND PUSH1 0x6 PUSH1 0x0 PUSH1 0x1 PUSH1 0x9 SLOAD PUSH2 0xC55 SWAP2 SWAP1 PUSH2 0x260A JUMP JUMPDEST DUP2 MSTORE PUSH1 0x20 DUP2 ADD SWAP2 SWAP1 SWAP2 MSTORE PUSH1 0x40 ADD PUSH1 0x0 KECCAK256 SLOAD PUSH2 0xC7D SWAP2 SWAP1 PUSH1 0x1 PUSH1 0xC0 SHL SWAP1 DIV PUSH4 0xFFFFFFFF AND PUSH2 0x26A4 JUMP JUMPDEST PUSH2 0xC87 SWAP2 SWAP1 PUSH2 0x26C8 JUMP JUMPDEST PUSH4 0xFFFFFFFF AND SWAP1 POP JUMPDEST PUSH1 0x40 DUP1 MLOAD PUSH1 0xE0 DUP2 ADD DUP3 MSTORE PUSH1 0x1 PUSH1 0x1 PUSH1 0xA0 SHL SUB DUP5 AND DUP2 MSTORE PUSH4 0xFFFFFFFF DUP6 AND PUSH1 0x20 DUP3 ADD MSTORE SWAP1 DUP2 ADD PUSH2 0xCC0 DUP4 PUSH1 0x1 PUSH2 0x25F7 JUMP JUMPDEST PUSH4 0xFFFFFFFF AND DUP2 MSTORE PUSH1 0x20 ADD PUSH2 0xCD6 DUP4 PUSH1 0x1 PUSH2 0x25F7 JUMP JUMPDEST PUSH4 0xFFFFFFFF SWAP1 DUP2 AND DUP3 MSTORE PUSH1 0x20 DUP1 DUP4 ADD DUP11 SWAP1 MSTORE PUSH1 0x40 DUP1 DUP5 ADD DUP11 SWAP1 MSTORE PUSH1 0x60 SWAP4 DUP5 ADD DUP10 SWAP1 MSTORE PUSH1 0x9 SLOAD PUSH1 0x0 SWAP1 DUP2 MSTORE PUSH1 0x6 DUP4 MSTORE DUP2 SWAP1 KECCAK256 DUP6 MLOAD DUP2 SLOAD SWAP4 DUP8 ADD MLOAD SWAP3 DUP8 ADD MLOAD SWAP6 DUP8 ADD MLOAD DUP6 AND PUSH1 0x1 PUSH1 0xE0 SHL MUL PUSH1 0x1 PUSH1 0x1 PUSH1 0xE0 SHL SUB SWAP7 DUP7 AND PUSH1 0x1 PUSH1 0xC0 SHL MUL SWAP7 SWAP1 SWAP7 AND PUSH1 0x1 PUSH1 0x1 PUSH1 0xC0 SHL SUB SWAP4 SWAP1 SWAP6 AND PUSH1 0x1 PUSH1 0xA0 SHL MUL PUSH1 0x1 PUSH1 0x1 PUSH1 0xC0 SHL SUB NOT SWAP1 SWAP5 AND PUSH1 0x1 PUSH1 0x1 PUSH1 0xA0 SHL SUB SWAP1 SWAP2 AND OR SWAP3 SWAP1 SWAP3 OR AND SWAP2 SWAP1 SWAP2 OR SWAP2 SWAP1 SWAP2 OR DUP2 SSTORE PUSH1 0x80 DUP3 ADD MLOAD PUSH1 0x1 DUP3 ADD SWAP1 PUSH2 0xD81 SWAP1 DUP3 PUSH2 0x2762 JUMP JUMPDEST POP PUSH1 0xA0 DUP3 ADD MLOAD PUSH1 0x2 DUP3 ADD SWAP1 PUSH2 0xD96 SWAP1 DUP3 PUSH2 0x2762 JUMP JUMPDEST POP PUSH1 0xC0 DUP3 ADD MLOAD PUSH1 0x3 DUP3 ADD SWAP1 PUSH2 0xDAB SWAP1 DUP3 PUSH2 0x2762 JUMP JUMPDEST POP POP POP PUSH1 0x1 PUSH1 0x1 PUSH1 0xA0 SHL SUB DUP3 AND PUSH1 0x0 SWAP1 DUP2 MSTORE PUSH1 0x7 PUSH1 0x20 SWAP1 DUP2 MSTORE PUSH1 0x40 DUP1 DUP4 KECCAK256 PUSH1 0x9 DUP1 SLOAD DUP3 SLOAD PUSH1 0x1 DUP2 ADD DUP5 SSTORE SWAP3 DUP7 MSTORE SWAP4 SWAP1 SWAP5 KECCAK256 ADD SWAP2 SWAP1 SWAP2 SSTORE SWAP1 SLOAD SWAP1 MLOAD PUSH32 0x78BD041CCDE566840671287EC2AF1BA89E89999397DA28C1E2C980C462D12C4B SWAP1 PUSH2 0xE1A SWAP1 DUP10 SWAP1 DUP10 SWAP1 DUP10 SWAP1 DUP10 SWAP1 DUP10 SWAP1 PUSH2 0x2822 JUMP JUMPDEST PUSH1 0x40 MLOAD DUP1 SWAP2 SUB SWAP1 LOG2 PUSH1 0x9 DUP1 SLOAD SWAP1 PUSH1 0x0 PUSH2 0xE32 DUP4 PUSH2 0x26E5 JUMP JUMPDEST SWAP2 SWAP1 POP SSTORE POP POP POP POP POP POP POP JUMP JUMPDEST PUSH1 0x6 PUSH1 0x20 MSTORE PUSH1 0x0 SWAP1 DUP2 MSTORE PUSH1 0x40 SWAP1 KECCAK256 DUP1 SLOAD PUSH1 0x1 DUP3 ADD DUP1 SLOAD PUSH1 0x1 PUSH1 0x1 PUSH1 0xA0 SHL SUB DUP4 AND SWAP4 PUSH4 0xFFFFFFFF PUSH1 0x1 PUSH1 0xA0 SHL DUP6 DIV DUP2 AND SWAP5 PUSH1 0x1 PUSH1 0xC0 SHL DUP2 DIV DUP3 AND SWAP5 PUSH1 0x1 PUSH1 0xE0 SHL SWAP1 SWAP2 DIV SWAP1 SWAP2 AND SWAP3 PUSH2 0xE8E SWAP1 PUSH2 0x261D JUMP JUMPDEST DUP1 PUSH1 0x1F ADD PUSH1 0x20 DUP1 SWAP2 DIV MUL PUSH1 0x20 ADD PUSH1 0x40 MLOAD SWAP1 DUP2 ADD PUSH1 0x40 MSTORE DUP1 SWAP3 SWAP2 SWAP1 DUP2 DUP2 MSTORE PUSH1 0x20 ADD DUP3 DUP1 SLOAD PUSH2 0xEBA SWAP1 PUSH2 0x261D JUMP JUMPDEST DUP1 ISZERO PUSH2 0xF07 JUMPI DUP1 PUSH1 0x1F LT PUSH2 0xEDC JUMPI PUSH2 0x100 DUP1 DUP4 SLOAD DIV MUL DUP4 MSTORE SWAP2 PUSH1 0x20 ADD SWAP2 PUSH2 0xF07 JUMP JUMPDEST DUP3 ADD SWAP2 SWAP1 PUSH1 0x0 MSTORE PUSH1 0x20 PUSH1 0x0 KECCAK256 SWAP1 JUMPDEST DUP2 SLOAD DUP2 MSTORE SWAP1 PUSH1 0x1 ADD SWAP1 PUSH1 0x20 ADD DUP1 DUP4 GT PUSH2 0xEEA JUMPI DUP3 SWAP1 SUB PUSH1 0x1F AND DUP3 ADD SWAP2 JUMPDEST POP POP POP POP POP SWAP1 DUP1 PUSH1 0x2 ADD DUP1 SLOAD PUSH2 0xF1C SWAP1 PUSH2 0x261D JUMP JUMPDEST DUP1 PUSH1 0x1F ADD PUSH1 0x20 DUP1 SWAP2 DIV MUL PUSH1 0x20 ADD PUSH1 0x40 MLOAD SWAP1 DUP2 ADD PUSH1 0x40 MSTORE DUP1 SWAP3 SWAP2 SWAP1 DUP2 DUP2 MSTORE PUSH1 0x20 ADD DUP3 DUP1 SLOAD PUSH2 0xF48 SWAP1 PUSH2 0x261D JUMP JUMPDEST DUP1 ISZERO PUSH2 0xF95 JUMPI DUP1 PUSH1 0x1F LT PUSH2 0xF6A JUMPI PUSH2 0x100 DUP1 DUP4 SLOAD DIV MUL DUP4 MSTORE SWAP2 PUSH1 0x20 ADD SWAP2 PUSH2 0xF95 JUMP JUMPDEST DUP3 ADD SWAP2 SWAP1 PUSH1 0x0 MSTORE PUSH1 0x20 PUSH1 0x0 KECCAK256 SWAP1 JUMPDEST DUP2 SLOAD DUP2 MSTORE SWAP1 PUSH1 0x1 ADD SWAP1 PUSH1 0x20 ADD DUP1 DUP4 GT PUSH2 0xF78 JUMPI DUP3 SWAP1 SUB PUSH1 0x1F AND DUP3 ADD SWAP2 JUMPDEST POP POP POP POP POP SWAP1 DUP1 PUSH1 0x3 ADD DUP1 SLOAD PUSH2 0xFAA SWAP1 PUSH2 0x261D JUMP JUMPDEST DUP1 PUSH1 0x1F ADD PUSH1 0x20 DUP1 SWAP2 DIV MUL PUSH1 0x20 ADD PUSH1 0x40 MLOAD SWAP1 DUP2 ADD PUSH1 0x40 MSTORE DUP1 SWAP3 SWAP2 SWAP1 DUP2 DUP2 MSTORE PUSH1 0x20 ADD DUP3 DUP1 SLOAD PUSH2 0xFD6 SWAP1 PUSH2 0x261D JUMP JUMPDEST DUP1 ISZERO PUSH2 0x1023 JUMPI DUP1 PUSH1 0x1F LT PUSH2 0xFF8 JUMPI PUSH2 0x100 DUP1 DUP4 SLOAD DIV MUL DUP4 MSTORE SWAP2 PUSH1 0x20 ADD SWAP2 PUSH2 0x1023 JUMP JUMPDEST DUP3 ADD SWAP2 SWAP1 PUSH1 0x0 MSTORE PUSH1 0x20 PUSH1 0x0 KECCAK256 SWAP1 JUMPDEST DUP2 SLOAD DUP2 MSTORE SWAP1 PUSH1 0x1 ADD SWAP1 PUSH1 0x20 ADD DUP1 DUP4 GT PUSH2 0x1006 JUMPI DUP3 SWAP1 SUB PUSH1 0x1F AND DUP3 ADD SWAP2 JUMPDEST POP POP POP POP POP SWAP1 POP DUP8 JUMP JUMPDEST PUSH1 0x0 DUP3 DUP2 MSTORE PUSH1 0x6 PUSH1 0x20 MSTORE PUSH1 0x40 SWAP1 KECCAK256 SLOAD PUSH1 0x1 PUSH1 0x1 PUSH1 0xA0 SHL SUB AND PUSH2 0x1062 JUMPI PUSH1 0x40 MLOAD PUSH4 0x1EAEBD19 PUSH1 0xE1 SHL DUP2 MSTORE PUSH1 0x4 ADD PUSH1 0x40 MLOAD DUP1 SWAP2 SUB SWAP1 REVERT JUMPDEST PUSH1 0x0 DUP3 DUP2 MSTORE PUSH1 0x6 PUSH1 0x20 MSTORE PUSH1 0x40 SWAP1 KECCAK256 SLOAD PUSH1 0x1 PUSH1 0x1 PUSH1 0xA0 SHL SUB AND CALLER EQ PUSH2 0x1099 JUMPI PUSH1 0x40 MLOAD PUSH4 0x4B016C9 PUSH1 0xE4 SHL DUP2 MSTORE PUSH1 0x4 ADD PUSH1 0x40 MLOAD DUP1 SWAP2 SUB SWAP1 REVERT JUMPDEST PUSH1 0x0 DUP3 DUP2 MSTORE PUSH1 0x6 PUSH1 0x20 MSTORE PUSH1 0x40 SWAP1 KECCAK256 SLOAD PUSH1 0x1 SWAP1 PUSH2 0x10CB SWAP1 PUSH4 0xFFFFFFFF PUSH1 0x1 PUSH1 0xA0 SHL DUP3 DIV DUP2 AND SWAP2 PUSH1 0x1 PUSH1 0xC0 SHL SWAP1 DIV AND PUSH2 0x26A4 JUMP JUMPDEST PUSH2 0x10D5 SWAP2 SWAP1 PUSH2 0x26C8 JUMP JUMPDEST PUSH1 0x0 DUP4 DUP2 MSTORE PUSH1 0x6 PUSH1 0x20 MSTORE PUSH1 0x40 SWAP1 KECCAK256 SLOAD PUSH4 0xFFFFFFFF SWAP2 DUP3 AND PUSH1 0x1 PUSH1 0xE0 SHL SWAP1 SWAP2 DIV SWAP1 SWAP2 AND GT ISZERO PUSH2 0x1116 JUMPI PUSH1 0x40 MLOAD PUSH4 0x40F6549F PUSH1 0xE1 SHL DUP2 MSTORE PUSH1 0x4 ADD PUSH1 0x40 MLOAD DUP1 SWAP2 SUB SWAP1 REVERT JUMPDEST PUSH1 0x0 DUP3 DUP2 MSTORE PUSH1 0x6 PUSH1 0x20 MSTORE PUSH1 0x40 SWAP1 KECCAK256 DUP1 SLOAD PUSH2 0x116E SWAP2 DUP4 SWAP2 PUSH1 0x1 PUSH1 0xE0 SHL SWAP1 DIV PUSH4 0xFFFFFFFF AND SWAP1 PUSH1 0x1C PUSH2 0x1145 DUP4 PUSH2 0x287E JUMP JUMPDEST SWAP2 SWAP1 PUSH2 0x100 EXP DUP2 SLOAD DUP2 PUSH4 0xFFFFFFFF MUL NOT AND SWAP1 DUP4 PUSH4 0xFFFFFFFF AND MUL OR SWAP1 SSTORE POP PUSH4 0xFFFFFFFF AND PUSH2 0x180E JUMP JUMPDEST POP POP JUMP JUMPDEST PUSH1 0x60 PUSH1 0x1 DUP1 SLOAD PUSH2 0x6A6 SWAP1 PUSH2 0x261D JUMP JUMPDEST PUSH2 0x116E CALLER DUP4 DUP4 PUSH2 0x19A7 JUMP JUMPDEST PUSH1 0x1 PUSH1 0x1 PUSH1 0xA0 SHL SUB DUP2 AND PUSH1 0x0 SWAP1 DUP2 MSTORE PUSH1 0x7 PUSH1 0x20 SWAP1 DUP2 MSTORE PUSH1 0x40 SWAP2 DUP3 SWAP1 KECCAK256 DUP1 SLOAD DUP4 MLOAD DUP2 DUP5 MUL DUP2 ADD DUP5 ADD SWAP1 SWAP5 MSTORE DUP1 DUP5 MSTORE PUSH1 0x60 SWAP4 SWAP3 DUP4 ADD DUP3 DUP3 DUP1 ISZERO PUSH2 0x68B JUMPI PUSH1 0x20 MUL DUP3 ADD SWAP2 SWAP1 PUSH1 0x0 MSTORE PUSH1 0x20 PUSH1 0x0 KECCAK256 SWAP1 JUMPDEST DUP2 SLOAD DUP2 MSTORE PUSH1 0x20 ADD SWAP1 PUSH1 0x1 ADD SWAP1 DUP1 DUP4 GT PUSH2 0x11D8 JUMPI POP POP POP POP POP SWAP1 POP SWAP2 SWAP1 POP JUMP JUMPDEST PUSH2 0x1201 CALLER DUP4 PUSH2 0x161F JUMP JUMPDEST PUSH2 0x121D JUMPI PUSH1 0x40 MLOAD PUSH3 0x461BCD PUSH1 0xE5 SHL DUP2 MSTORE PUSH1 0x4 ADD PUSH2 0x7C4 SWAP1 PUSH2 0x2657 JUMP JUMPDEST PUSH2 0x1229 DUP5 DUP5 DUP5 DUP5 PUSH2 0x1A75 JUMP JUMPDEST POP POP POP POP JUMP JUMPDEST PUSH1 0x0 DUP2 DUP2 MSTORE PUSH1 0x6 PUSH1 0x20 MSTORE PUSH1 0x40 DUP2 KECCAK256 SLOAD PUSH2 0x125E SWAP1 PUSH4 0xFFFFFFFF PUSH1 0x1 PUSH1 0xC0 SHL DUP3 DIV DUP2 AND SWAP2 PUSH1 0x1 PUSH1 0xE0 SHL SWAP1 DIV AND PUSH2 0x26C8 JUMP JUMPDEST PUSH4 0xFFFFFFFF AND SWAP3 SWAP2 POP POP JUMP JUMPDEST PUSH1 0x1 PUSH1 0x1 PUSH1 0xA0 SHL SUB DUP2 AND PUSH2 0x1291 JUMPI PUSH1 0x40 MLOAD PUSH4 0xD92E233D PUSH1 0xE0 SHL DUP2 MSTORE PUSH1 0x4 ADD PUSH1 0x40 MLOAD DUP1 SWAP2 SUB SWAP1 REVERT JUMPDEST PUSH1 0x0 DUP3 DUP2 MSTORE PUSH1 0x6 PUSH1 0x20 MSTORE PUSH1 0x40 SWAP1 KECCAK256 SLOAD PUSH1 0x1 PUSH1 0x1 PUSH1 0xA0 SHL SUB AND CALLER EQ PUSH2 0x12C8 JUMPI PUSH1 0x40 MLOAD PUSH4 0x4B016C9 PUSH1 0xE4 SHL DUP2 MSTORE PUSH1 0x4 ADD PUSH1 0x40 MLOAD DUP1 SWAP2 SUB SWAP1 REVERT JUMPDEST PUSH1 0x0 DUP3 DUP2 MSTORE PUSH1 0x6 PUSH1 0x20 MSTORE PUSH1 0x40 DUP1 DUP3 KECCAK256 DUP1 SLOAD PUSH1 0x1 PUSH1 0x1 PUSH1 0xA0 SHL SUB NOT AND PUSH1 0x1 PUSH1 0x1 PUSH1 0xA0 SHL SUB DUP6 AND SWAP1 DUP2 OR SWAP1 SWAP2 SSTORE SWAP1 MLOAD SWAP1 SWAP2 DUP5 SWAP2 PUSH32 0xA45F64B64D3D529C6EC20136F62D48C17448960CCAC66CD92D65320A6E8461EC SWAP2 SWAP1 LOG3 POP POP JUMP JUMPDEST PUSH1 0x60 PUSH2 0x132C DUP3 PUSH2 0x154F JUMP JUMPDEST PUSH1 0x0 PUSH2 0x1337 DUP4 PUSH2 0x1AA8 JUMP JUMPDEST PUSH1 0x0 DUP2 DUP2 MSTORE PUSH1 0x6 PUSH1 0x20 MSTORE PUSH1 0x40 DUP2 KECCAK256 PUSH1 0x3 ADD DUP1 SLOAD SWAP3 SWAP4 POP SWAP1 SWAP2 PUSH2 0x1358 SWAP1 PUSH2 0x261D JUMP JUMPDEST DUP1 PUSH1 0x1F ADD PUSH1 0x20 DUP1 SWAP2 DIV MUL PUSH1 0x20 ADD PUSH1 0x40 MLOAD SWAP1 DUP2 ADD PUSH1 0x40 MSTORE DUP1 SWAP3 SWAP2 SWAP1 DUP2 DUP2 MSTORE PUSH1 0x20 ADD DUP3 DUP1 SLOAD PUSH2 0x1384 SWAP1 PUSH2 0x261D JUMP JUMPDEST DUP1 ISZERO PUSH2 0x13D1 JUMPI DUP1 PUSH1 0x1F LT PUSH2 0x13A6 JUMPI PUSH2 0x100 DUP1 DUP4 SLOAD DIV MUL DUP4 MSTORE SWAP2 PUSH1 0x20 ADD SWAP2 PUSH2 0x13D1 JUMP JUMPDEST DUP3 ADD SWAP2 SWAP1 PUSH1 0x0 MSTORE PUSH1 0x20 PUSH1 0x0 KECCAK256 SWAP1 JUMPDEST DUP2 SLOAD DUP2 MSTORE SWAP1 PUSH1 0x1 ADD SWAP1 PUSH1 0x20 ADD DUP1 DUP4 GT PUSH2 0x13B4 JUMPI DUP3 SWAP1 SUB PUSH1 0x1F AND DUP3 ADD SWAP2 JUMPDEST POP POP POP PUSH1 0x0 DUP6 DUP2 MSTORE PUSH1 0x6 PUSH1 0x20 MSTORE PUSH1 0x40 SWAP1 KECCAK256 SLOAD SWAP3 SWAP4 POP PUSH2 0x1402 SWAP3 PUSH1 0x1 SWAP3 POP PUSH1 0x1 PUSH1 0xC0 SHL SWAP1 DIV PUSH4 0xFFFFFFFF AND SWAP1 POP PUSH2 0x26C8 JUMP JUMPDEST PUSH2 0x1412 SWAP1 PUSH4 0xFFFFFFFF AND DUP6 PUSH2 0x260A JUMP JUMPDEST SWAP4 POP PUSH1 0x0 DUP2 MLOAD GT PUSH2 0x1432 JUMPI PUSH1 0x40 MLOAD DUP1 PUSH1 0x20 ADD PUSH1 0x40 MSTORE DUP1 PUSH1 0x0 DUP2 MSTORE POP PUSH2 0x145D JUMP JUMPDEST DUP1 PUSH2 0x143C DUP6 PUSH2 0x1BAD JUMP JUMPDEST PUSH1 0x40 MLOAD PUSH1 0x20 ADD PUSH2 0x144D SWAP3 SWAP2 SWAP1 PUSH2 0x28A1 JUMP JUMPDEST PUSH1 0x40 MLOAD PUSH1 0x20 DUP2 DUP4 SUB SUB DUP2 MSTORE SWAP1 PUSH1 0x40 MSTORE JUMPDEST SWAP5 SWAP4 POP POP POP POP JUMP JUMPDEST PUSH1 0x7 PUSH1 0x20 MSTORE DUP2 PUSH1 0x0 MSTORE PUSH1 0x40 PUSH1 0x0 KECCAK256 DUP2 DUP2 SLOAD DUP2 LT PUSH2 0x1481 JUMPI PUSH1 0x0 DUP1 REVERT JUMPDEST SWAP1 PUSH1 0x0 MSTORE PUSH1 0x20 PUSH1 0x0 KECCAK256 ADD PUSH1 0x0 SWAP2 POP SWAP2 POP POP SLOAD DUP2 JUMP JUMPDEST PUSH1 0x0 DUP1 PUSH2 0x14A2 DUP4 PUSH2 0x1AA8 JUMP JUMPDEST SWAP1 POP PUSH1 0x0 NOT DUP2 SUB PUSH2 0x53C JUMPI PUSH1 0x40 MLOAD PUSH4 0x1EAEBD19 PUSH1 0xE1 SHL DUP2 MSTORE PUSH1 0x4 ADD PUSH1 0x40 MLOAD DUP1 SWAP2 SUB SWAP1 REVERT JUMPDEST PUSH1 0x0 DUP1 PUSH2 0x14D2 DUP4 PUSH2 0x1AA8 JUMP JUMPDEST SWAP1 POP PUSH4 0xFFFFFFFE NOT DUP2 ADD PUSH2 0x14F9 JUMPI PUSH1 0x40 MLOAD PUSH4 0x1EAEBD19 PUSH1 0xE1 SHL DUP2 MSTORE PUSH1 0x4 ADD PUSH1 0x40 MLOAD DUP1 SWAP2 SUB SWAP1 REVERT JUMPDEST PUSH1 0x0 DUP2 DUP2 MSTORE PUSH1 0x6 PUSH1 0x20 MSTORE PUSH1 0x40 SWAP1 KECCAK256 SLOAD PUSH2 0x151F SWAP1 PUSH1 0x1 PUSH1 0xC0 SHL SWAP1 DIV PUSH4 0xFFFFFFFF AND DUP5 PUSH2 0x260A JUMP JUMPDEST PUSH2 0x5EB SWAP1 PUSH1 0x1 PUSH2 0x25F7 JUMP JUMPDEST PUSH1 0x0 PUSH1 0x1 PUSH1 0x1 PUSH1 0xE0 SHL SUB NOT DUP3 AND PUSH4 0x780E9D63 PUSH1 0xE0 SHL EQ DUP1 PUSH2 0x53C JUMPI POP PUSH2 0x53C DUP3 PUSH2 0x1C40 JUMP JUMPDEST PUSH1 0x0 DUP2 DUP2 MSTORE PUSH1 0x2 PUSH1 0x20 MSTORE PUSH1 0x40 SWAP1 KECCAK256 SLOAD PUSH1 0x1 PUSH1 0x1 PUSH1 0xA0 SHL SUB AND PUSH2 0x15AE JUMPI PUSH1 0x40 MLOAD PUSH3 0x461BCD PUSH1 0xE5 SHL DUP2 MSTORE PUSH1 0x20 PUSH1 0x4 DUP3 ADD MSTORE PUSH1 0x18 PUSH1 0x24 DUP3 ADD MSTORE PUSH24 0x115490CDCC8C4E881A5B9D985B1A59081D1BDAD95B881251 PUSH1 0x42 SHL PUSH1 0x44 DUP3 ADD MSTORE PUSH1 0x64 ADD PUSH2 0x7C4 JUMP JUMPDEST POP JUMP JUMPDEST PUSH1 0x0 DUP2 DUP2 MSTORE PUSH1 0x4 PUSH1 0x20 MSTORE PUSH1 0x40 SWAP1 KECCAK256 DUP1 SLOAD PUSH1 0x1 PUSH1 0x1 PUSH1 0xA0 SHL SUB NOT AND PUSH1 0x1 PUSH1 0x1 PUSH1 0xA0 SHL SUB DUP5 AND SWAP1 DUP2 OR SWAP1 SWAP2 SSTORE DUP2 SWAP1 PUSH2 0x15E6 DUP3 PUSH2 0xAB0 JUMP JUMPDEST PUSH1 0x1 PUSH1 0x1 PUSH1 0xA0 SHL SUB AND PUSH32 0x8C5BE1E5EBEC7D5BD14F71427D1E84F3DD0314C0F7B2291E5B200AC8C7C3B925 PUSH1 0x40 MLOAD PUSH1 0x40 MLOAD DUP1 SWAP2 SUB SWAP1 LOG4 POP POP JUMP JUMPDEST PUSH1 0x0 DUP1 PUSH2 0x162B DUP4 PUSH2 0xAB0 JUMP JUMPDEST SWAP1 POP DUP1 PUSH1 0x1 PUSH1 0x1 PUSH1 0xA0 SHL SUB AND DUP5 PUSH1 0x1 PUSH1 0x1 PUSH1 0xA0 SHL SUB AND EQ DUP1 PUSH2 0x1672 JUMPI POP PUSH1 0x1 PUSH1 0x1 PUSH1 0xA0 SHL SUB DUP1 DUP3 AND PUSH1 0x0 SWAP1 DUP2 MSTORE PUSH1 0x5 PUSH1 0x20 SWAP1 DUP2 MSTORE PUSH1 0x40 DUP1 DUP4 KECCAK256 SWAP4 DUP9 AND DUP4 MSTORE SWAP3 SWAP1 MSTORE KECCAK256 SLOAD PUSH1 0xFF AND JUMPDEST DUP1 PUSH2 0x145D JUMPI POP DUP4 PUSH1 0x1 PUSH1 0x1 PUSH1 0xA0 SHL SUB AND PUSH2 0x168B DUP5 PUSH2 0x729 JUMP JUMPDEST PUSH1 0x1 PUSH1 0x1 PUSH1 0xA0 SHL SUB AND EQ SWAP5 SWAP4 POP POP POP POP JUMP JUMPDEST DUP3 PUSH1 0x1 PUSH1 0x1 PUSH1 0xA0 SHL SUB AND PUSH2 0x16B0 DUP3 PUSH2 0xAB0 JUMP JUMPDEST PUSH1 0x1 PUSH1 0x1 PUSH1 0xA0 SHL SUB AND EQ PUSH2 0x16D6 JUMPI PUSH1 0x40 MLOAD PUSH3 0x461BCD PUSH1 0xE5 SHL DUP2 MSTORE PUSH1 0x4 ADD PUSH2 0x7C4 SWAP1 PUSH2 0x28D0 JUMP JUMPDEST PUSH1 0x1 PUSH1 0x1 PUSH1 0xA0 SHL SUB DUP3 AND PUSH2 0x1738 JUMPI PUSH1 0x40 MLOAD PUSH3 0x461BCD PUSH1 0xE5 SHL DUP2 MSTORE PUSH1 0x20 PUSH1 0x4 DUP3 ADD MSTORE PUSH1 0x24 DUP1 DUP3 ADD MSTORE PUSH32 0x4552433732313A207472616E7366657220746F20746865207A65726F20616464 PUSH1 0x44 DUP3 ADD MSTORE PUSH4 0x72657373 PUSH1 0xE0 SHL PUSH1 0x64 DUP3 ADD MSTORE PUSH1 0x84 ADD PUSH2 0x7C4 JUMP JUMPDEST PUSH2 0x1745 DUP4 DUP4 DUP4 PUSH1 0x1 PUSH2 0x1C65 JUMP JUMPDEST DUP3 PUSH1 0x1 PUSH1 0x1 PUSH1 0xA0 SHL SUB AND PUSH2 0x1758 DUP3 PUSH2 0xAB0 JUMP JUMPDEST PUSH1 0x1 PUSH1 0x1 PUSH1 0xA0 SHL SUB AND EQ PUSH2 0x177E JUMPI PUSH1 0x40 MLOAD PUSH3 0x461BCD PUSH1 0xE5 SHL DUP2 MSTORE PUSH1 0x4 ADD PUSH2 0x7C4 SWAP1 PUSH2 0x28D0 JUMP JUMPDEST PUSH1 0x0 DUP2 DUP2 MSTORE PUSH1 0x4 PUSH1 0x20 SWAP1 DUP2 MSTORE PUSH1 0x40 DUP1 DUP4 KECCAK256 DUP1 SLOAD PUSH1 0x1 PUSH1 0x1 PUSH1 0xA0 SHL SUB NOT SWAP1 DUP2 AND SWAP1 SWAP2 SSTORE PUSH1 0x1 PUSH1 0x1 PUSH1 0xA0 SHL SUB DUP8 DUP2 AND DUP1 DUP7 MSTORE PUSH1 0x3 DUP6 MSTORE DUP4 DUP7 KECCAK256 DUP1 SLOAD PUSH1 0x0 NOT ADD SWAP1 SSTORE SWAP1 DUP8 AND DUP1 DUP7 MSTORE DUP4 DUP7 KECCAK256 DUP1 SLOAD PUSH1 0x1 ADD SWAP1 SSTORE DUP7 DUP7 MSTORE PUSH1 0x2 SWAP1 SWAP5 MSTORE DUP3 DUP6 KECCAK256 DUP1 SLOAD SWAP1 SWAP3 AND DUP5 OR SWAP1 SWAP2 SSTORE SWAP1 MLOAD DUP5 SWAP4 PUSH32 0xDDF252AD1BE2C89B69C2B068FC378DAA952BA7F163C4A11628F55A4DF523B3EF SWAP2 LOG4 POP POP POP JUMP JUMPDEST PUSH1 0x1 PUSH1 0x1 PUSH1 0xA0 SHL SUB DUP3 AND PUSH2 0x1864 JUMPI PUSH1 0x40 MLOAD PUSH3 0x461BCD PUSH1 0xE5 SHL DUP2 MSTORE PUSH1 0x20 PUSH1 0x4 DUP3 ADD DUP2 SWAP1 MSTORE PUSH1 0x24 DUP3 ADD MSTORE PUSH32 0x4552433732313A206D696E7420746F20746865207A65726F2061646472657373 PUSH1 0x44 DUP3 ADD MSTORE PUSH1 0x64 ADD PUSH2 0x7C4 JUMP JUMPDEST PUSH1 0x0 DUP2 DUP2 MSTORE PUSH1 0x2 PUSH1 0x20 MSTORE PUSH1 0x40 SWAP1 KECCAK256 SLOAD PUSH1 0x1 PUSH1 0x1 PUSH1 0xA0 SHL SUB AND ISZERO PUSH2 0x18C9 JUMPI PUSH1 0x40 MLOAD PUSH3 0x461BCD PUSH1 0xE5 SHL DUP2 MSTORE PUSH1 0x20 PUSH1 0x4 DUP3 ADD MSTORE PUSH1 0x1C PUSH1 0x24 DUP3 ADD MSTORE PUSH32 0x4552433732313A20746F6B656E20616C7265616479206D696E74656400000000 PUSH1 0x44 DUP3 ADD MSTORE PUSH1 0x64 ADD PUSH2 0x7C4 JUMP JUMPDEST PUSH2 0x18D7 PUSH1 0x0 DUP4 DUP4 PUSH1 0x1 PUSH2 0x1C65 JUMP JUMPDEST PUSH1 0x0 DUP2 DUP2 MSTORE PUSH1 0x2 PUSH1 0x20 MSTORE PUSH1 0x40 SWAP1 KECCAK256 SLOAD PUSH1 0x1 PUSH1 0x1 PUSH1 0xA0 SHL SUB AND ISZERO PUSH2 0x193C JUMPI PUSH1 0x40 MLOAD PUSH3 0x461BCD PUSH1 0xE5 SHL DUP2 MSTORE PUSH1 0x20 PUSH1 0x4 DUP3 ADD MSTORE PUSH1 0x1C PUSH1 0x24 DUP3 ADD MSTORE PUSH32 0x4552433732313A20746F6B656E20616C7265616479206D696E74656400000000 PUSH1 0x44 DUP3 ADD MSTORE PUSH1 0x64 ADD PUSH2 0x7C4 JUMP JUMPDEST PUSH1 0x1 PUSH1 0x1 PUSH1 0xA0 SHL SUB DUP3 AND PUSH1 0x0 DUP2 DUP2 MSTORE PUSH1 0x3 PUSH1 0x20 SWAP1 DUP2 MSTORE PUSH1 0x40 DUP1 DUP4 KECCAK256 DUP1 SLOAD PUSH1 0x1 ADD SWAP1 SSTORE DUP5 DUP4 MSTORE PUSH1 0x2 SWAP1 SWAP2 MSTORE DUP1 DUP3 KECCAK256 DUP1 SLOAD PUSH1 0x1 PUSH1 0x1 PUSH1 0xA0 SHL SUB NOT AND DUP5 OR SWAP1 SSTORE MLOAD DUP4 SWAP3 SWAP2 SWAP1 PUSH32 0xDDF252AD1BE2C89B69C2B068FC378DAA952BA7F163C4A11628F55A4DF523B3EF SWAP1 DUP3 SWAP1 LOG4 POP POP JUMP JUMPDEST DUP2 PUSH1 0x1 PUSH1 0x1 PUSH1 0xA0 SHL SUB AND DUP4 PUSH1 0x1 PUSH1 0x1 PUSH1 0xA0 SHL SUB AND SUB PUSH2 0x1A08 JUMPI PUSH1 0x40 MLOAD PUSH3 0x461BCD PUSH1 0xE5 SHL DUP2 MSTORE PUSH1 0x20 PUSH1 0x4 DUP3 ADD MSTORE PUSH1 0x19 PUSH1 0x24 DUP3 ADD MSTORE PUSH32 0x4552433732313A20617070726F766520746F2063616C6C657200000000000000 PUSH1 0x44 DUP3 ADD MSTORE PUSH1 0x64 ADD PUSH2 0x7C4 JUMP JUMPDEST PUSH1 0x1 PUSH1 0x1 PUSH1 0xA0 SHL SUB DUP4 DUP2 AND PUSH1 0x0 DUP2 DUP2 MSTORE PUSH1 0x5 PUSH1 0x20 SWAP1 DUP2 MSTORE PUSH1 0x40 DUP1 DUP4 KECCAK256 SWAP5 DUP8 AND DUP1 DUP5 MSTORE SWAP5 DUP3 MSTORE SWAP2 DUP3 SWAP1 KECCAK256 DUP1 SLOAD PUSH1 0xFF NOT AND DUP7 ISZERO ISZERO SWAP1 DUP2 OR SWAP1 SWAP2 SSTORE SWAP2 MLOAD SWAP2 DUP3 MSTORE PUSH32 0x17307EAB39AB6107E8899845AD3D59BD9653F200F220920489CA2B5937696C31 SWAP2 ADD PUSH1 0x40 MLOAD DUP1 SWAP2 SUB SWAP1 LOG3 POP POP POP JUMP JUMPDEST PUSH2 0x1A80 DUP5 DUP5 DUP5 PUSH2 0x169D JUMP JUMPDEST PUSH2 0x1A8C DUP5 DUP5 DUP5 DUP5 PUSH2 0x1C71 JUMP JUMPDEST PUSH2 0x1229 JUMPI PUSH1 0x40 MLOAD PUSH3 0x461BCD PUSH1 0xE5 SHL DUP2 MSTORE PUSH1 0x4 ADD PUSH2 0x7C4 SWAP1 PUSH2 0x2915 JUMP JUMPDEST PUSH1 0x0 PUSH1 0x9 SLOAD PUSH1 0x0 SUB PUSH2 0x1ABD JUMPI POP PUSH1 0x0 NOT SWAP2 SWAP1 POP JUMP JUMPDEST PUSH1 0x0 DUP1 PUSH1 0x1 PUSH1 0x9 SLOAD PUSH2 0x1ACF SWAP2 SWAP1 PUSH2 0x260A JUMP JUMPDEST SWAP1 POP PUSH1 0x0 JUMPDEST DUP2 DUP4 GT PUSH2 0x1BA1 JUMPI PUSH1 0x2 PUSH2 0x1AE7 DUP5 DUP5 PUSH2 0x260A JUMP JUMPDEST PUSH2 0x1AF1 SWAP2 SWAP1 PUSH2 0x2967 JUMP JUMPDEST PUSH2 0x1AFB SWAP1 DUP5 PUSH2 0x25F7 JUMP JUMPDEST PUSH1 0x0 DUP2 DUP2 MSTORE PUSH1 0x6 PUSH1 0x20 MSTORE PUSH1 0x40 DUP2 KECCAK256 SLOAD SWAP2 SWAP3 POP PUSH4 0xFFFFFFFF PUSH1 0x1 PUSH1 0xC0 SHL DUP4 DIV DUP2 AND SWAP3 PUSH2 0x1B2F SWAP2 PUSH1 0x1 PUSH1 0xA0 SHL SWAP1 SWAP2 DIV AND DUP4 PUSH2 0x26A4 JUMP JUMPDEST PUSH4 0xFFFFFFFF AND SWAP1 POP DUP2 DUP8 LT ISZERO DUP1 ISZERO PUSH2 0x1B46 JUMPI POP DUP1 DUP8 LT JUMPDEST ISZERO PUSH2 0x1B56 JUMPI POP SWAP1 SWAP6 SWAP5 POP POP POP POP POP JUMP JUMPDEST DUP1 DUP8 LT PUSH2 0x1B7D JUMPI DUP4 DUP4 SUB PUSH2 0x1B6B JUMPI POP POP PUSH2 0x1BA1 JUMP JUMPDEST PUSH2 0x1B76 DUP4 PUSH1 0x1 PUSH2 0x25F7 JUMP JUMPDEST SWAP5 POP PUSH2 0x1B9A JUMP JUMPDEST DUP3 PUSH1 0x0 SUB PUSH2 0x1B8C JUMPI POP POP PUSH2 0x1BA1 JUMP JUMPDEST PUSH2 0x1B97 PUSH1 0x1 DUP5 PUSH2 0x260A JUMP JUMPDEST SWAP4 POP JUMPDEST POP POP PUSH2 0x1AD4 JUMP JUMPDEST POP PUSH1 0x0 NOT SWAP5 SWAP4 POP POP POP POP JUMP JUMPDEST PUSH1 0x60 PUSH1 0x0 PUSH2 0x1BBA DUP4 PUSH2 0x1D72 JUMP JUMPDEST PUSH1 0x1 ADD SWAP1 POP PUSH1 0x0 DUP2 PUSH8 0xFFFFFFFFFFFFFFFF DUP2 GT ISZERO PUSH2 0x1BDA JUMPI PUSH2 0x1BDA PUSH2 0x22CC JUMP JUMPDEST PUSH1 0x40 MLOAD SWAP1 DUP1 DUP3 MSTORE DUP1 PUSH1 0x1F ADD PUSH1 0x1F NOT AND PUSH1 0x20 ADD DUP3 ADD PUSH1 0x40 MSTORE DUP1 ISZERO PUSH2 0x1C04 JUMPI PUSH1 0x20 DUP3 ADD DUP2 DUP1 CALLDATASIZE DUP4 CALLDATACOPY ADD SWAP1 POP JUMPDEST POP SWAP1 POP DUP2 DUP2 ADD PUSH1 0x20 ADD JUMPDEST PUSH1 0x0 NOT ADD PUSH16 0x181899199A1A9B1B9C1CB0B131B232B3 PUSH1 0x81 SHL PUSH1 0xA DUP7 MOD BYTE DUP2 MSTORE8 PUSH1 0xA DUP6 DIV SWAP5 POP DUP5 PUSH2 0x1C0E JUMPI POP SWAP4 SWAP3 POP POP POP JUMP JUMPDEST PUSH1 0x0 PUSH4 0x3D0D0DC9 PUSH1 0xE2 SHL PUSH1 0x1 PUSH1 0x1 PUSH1 0xE0 SHL SUB NOT DUP4 AND EQ DUP1 PUSH2 0x53C JUMPI POP PUSH2 0x53C DUP3 PUSH2 0x1E4A JUMP JUMPDEST PUSH2 0x1229 DUP5 DUP5 DUP5 DUP5 PUSH2 0x1E9A JUMP JUMPDEST PUSH1 0x0 PUSH1 0x1 PUSH1 0x1 PUSH1 0xA0 SHL SUB DUP5 AND EXTCODESIZE ISZERO PUSH2 0x1D67 JUMPI PUSH1 0x40 MLOAD PUSH4 0xA85BD01 PUSH1 0xE1 SHL DUP2 MSTORE PUSH1 0x1 PUSH1 0x1 PUSH1 0xA0 SHL SUB DUP6 AND SWAP1 PUSH4 0x150B7A02 SWAP1 PUSH2 0x1CB5 SWAP1 CALLER SWAP1 DUP10 SWAP1 DUP9 SWAP1 DUP9 SWAP1 PUSH1 0x4 ADD PUSH2 0x2989 JUMP JUMPDEST PUSH1 0x20 PUSH1 0x40 MLOAD DUP1 DUP4 SUB DUP2 PUSH1 0x0 DUP8 GAS CALL SWAP3 POP POP POP DUP1 ISZERO PUSH2 0x1CF0 JUMPI POP PUSH1 0x40 DUP1 MLOAD PUSH1 0x1F RETURNDATASIZE SWAP1 DUP2 ADD PUSH1 0x1F NOT AND DUP3 ADD SWAP1 SWAP3 MSTORE PUSH2 0x1CED SWAP2 DUP2 ADD SWAP1 PUSH2 0x29C6 JUMP JUMPDEST PUSH1 0x1 JUMPDEST PUSH2 0x1D4D JUMPI RETURNDATASIZE DUP1 DUP1 ISZERO PUSH2 0x1D1E JUMPI PUSH1 0x40 MLOAD SWAP2 POP PUSH1 0x1F NOT PUSH1 0x3F RETURNDATASIZE ADD AND DUP3 ADD PUSH1 0x40 MSTORE RETURNDATASIZE DUP3 MSTORE RETURNDATASIZE PUSH1 0x0 PUSH1 0x20 DUP5 ADD RETURNDATACOPY PUSH2 0x1D23 JUMP JUMPDEST PUSH1 0x60 SWAP2 POP JUMPDEST POP DUP1 MLOAD PUSH1 0x0 SUB PUSH2 0x1D45 JUMPI PUSH1 0x40 MLOAD PUSH3 0x461BCD PUSH1 0xE5 SHL DUP2 MSTORE PUSH1 0x4 ADD PUSH2 0x7C4 SWAP1 PUSH2 0x2915 JUMP JUMPDEST DUP1 MLOAD DUP2 PUSH1 0x20 ADD REVERT JUMPDEST PUSH1 0x1 PUSH1 0x1 PUSH1 0xE0 SHL SUB NOT AND PUSH4 0xA85BD01 PUSH1 0xE1 SHL EQ SWAP1 POP PUSH2 0x145D JUMP JUMPDEST POP PUSH1 0x1 SWAP5 SWAP4 POP POP POP POP JUMP JUMPDEST PUSH1 0x0 DUP1 PUSH19 0x184F03E93FF9F4DAA797ED6E38ED64BF6A1F01 PUSH1 0x40 SHL DUP4 LT PUSH2 0x1DB1 JUMPI PUSH19 0x184F03E93FF9F4DAA797ED6E38ED64BF6A1F01 PUSH1 0x40 SHL DUP4 DIV SWAP3 POP PUSH1 0x40 ADD JUMPDEST PUSH14 0x4EE2D6D415B85ACEF8100000000 DUP4 LT PUSH2 0x1DDD JUMPI PUSH14 0x4EE2D6D415B85ACEF8100000000 DUP4 DIV SWAP3 POP PUSH1 0x20 ADD JUMPDEST PUSH7 0x2386F26FC10000 DUP4 LT PUSH2 0x1DFB JUMPI PUSH7 0x2386F26FC10000 DUP4 DIV SWAP3 POP PUSH1 0x10 ADD JUMPDEST PUSH4 0x5F5E100 DUP4 LT PUSH2 0x1E13 JUMPI PUSH4 0x5F5E100 DUP4 DIV SWAP3 POP PUSH1 0x8 ADD JUMPDEST PUSH2 0x2710 DUP4 LT PUSH2 0x1E27 JUMPI PUSH2 0x2710 DUP4 DIV SWAP3 POP PUSH1 0x4 ADD JUMPDEST PUSH1 0x64 DUP4 LT PUSH2 0x1E39 JUMPI PUSH1 0x64 DUP4 DIV SWAP3 POP PUSH1 0x2 ADD JUMPDEST PUSH1 0xA DUP4 LT PUSH2 0x53C JUMPI PUSH1 0x1 ADD SWAP3 SWAP2 POP POP JUMP JUMPDEST PUSH1 0x0 PUSH1 0x1 PUSH1 0x1 PUSH1 0xE0 SHL SUB NOT DUP3 AND PUSH4 0x80AC58CD PUSH1 0xE0 SHL EQ DUP1 PUSH2 0x1E7B JUMPI POP PUSH1 0x1 PUSH1 0x1 PUSH1 0xE0 SHL SUB NOT DUP3 AND PUSH4 0x5B5E139F PUSH1 0xE0 SHL EQ JUMPDEST DUP1 PUSH2 0x53C JUMPI POP PUSH4 0x1FFC9A7 PUSH1 0xE0 SHL PUSH1 0x1 PUSH1 0x1 PUSH1 0xE0 SHL SUB NOT DUP4 AND EQ PUSH2 0x53C JUMP JUMPDEST PUSH1 0x1 DUP2 GT ISZERO PUSH2 0x1F09 JUMPI PUSH1 0x40 MLOAD PUSH3 0x461BCD PUSH1 0xE5 SHL DUP2 MSTORE PUSH1 0x20 PUSH1 0x4 DUP3 ADD MSTORE PUSH1 0x35 PUSH1 0x24 DUP3 ADD MSTORE PUSH32 0x455243373231456E756D657261626C653A20636F6E7365637574697665207472 PUSH1 0x44 DUP3 ADD MSTORE PUSH21 0x185B9CD9995C9CC81B9BDD081CDD5C1C1BDC9D1959 PUSH1 0x5A SHL PUSH1 0x64 DUP3 ADD MSTORE PUSH1 0x84 ADD PUSH2 0x7C4 JUMP JUMPDEST DUP2 PUSH1 0x1 PUSH1 0x1 PUSH1 0xA0 SHL SUB DUP6 AND PUSH2 0x1F65 JUMPI PUSH2 0x1F60 DUP2 PUSH1 0xC DUP1 SLOAD PUSH1 0x0 DUP4 DUP2 MSTORE PUSH1 0xD PUSH1 0x20 MSTORE PUSH1 0x40 DUP2 KECCAK256 DUP3 SWAP1 SSTORE PUSH1 0x1 DUP3 ADD DUP4 SSTORE SWAP2 SWAP1 SWAP2 MSTORE PUSH32 0xDF6966C971051C3D54EC59162606531493A51404A002842F56009D7E5CF4A8C7 ADD SSTORE JUMP JUMPDEST PUSH2 0x1F88 JUMP JUMPDEST DUP4 PUSH1 0x1 PUSH1 0x1 PUSH1 0xA0 SHL SUB AND DUP6 PUSH1 0x1 PUSH1 0x1 PUSH1 0xA0 SHL SUB AND EQ PUSH2 0x1F88 JUMPI PUSH2 0x1F88 DUP6 DUP3 PUSH2 0x1FCE JUMP JUMPDEST PUSH1 0x1 PUSH1 0x1 PUSH1 0xA0 SHL SUB DUP5 AND PUSH2 0x1FA4 JUMPI PUSH2 0x1F9F DUP2 PUSH2 0x206B JUMP JUMPDEST PUSH2 0x1FC7 JUMP JUMPDEST DUP5 PUSH1 0x1 PUSH1 0x1 PUSH1 0xA0 SHL SUB AND DUP5 PUSH1 0x1 PUSH1 0x1 PUSH1 0xA0 SHL SUB AND EQ PUSH2 0x1FC7 JUMPI PUSH2 0x1FC7 DUP5 DUP3 PUSH2 0x211A JUMP JUMPDEST POP POP POP POP POP JUMP JUMPDEST PUSH1 0x0 PUSH1 0x1 PUSH2 0x1FDB DUP5 PUSH2 0xB10 JUMP JUMPDEST PUSH2 0x1FE5 SWAP2 SWAP1 PUSH2 0x260A JUMP JUMPDEST PUSH1 0x0 DUP4 DUP2 MSTORE PUSH1 0xB PUSH1 0x20 MSTORE PUSH1 0x40 SWAP1 KECCAK256 SLOAD SWAP1 SWAP2 POP DUP1 DUP3 EQ PUSH2 0x2038 JUMPI PUSH1 0x1 PUSH1 0x1 PUSH1 0xA0 SHL SUB DUP5 AND PUSH1 0x0 SWAP1 DUP2 MSTORE PUSH1 0xA PUSH1 0x20 SWAP1 DUP2 MSTORE PUSH1 0x40 DUP1 DUP4 KECCAK256 DUP6 DUP5 MSTORE DUP3 MSTORE DUP1 DUP4 KECCAK256 SLOAD DUP5 DUP5 MSTORE DUP2 DUP5 KECCAK256 DUP2 SWAP1 SSTORE DUP4 MSTORE PUSH1 0xB SWAP1 SWAP2 MSTORE SWAP1 KECCAK256 DUP2 SWAP1 SSTORE JUMPDEST POP PUSH1 0x0 SWAP2 DUP3 MSTORE PUSH1 0xB PUSH1 0x20 SWAP1 DUP2 MSTORE PUSH1 0x40 DUP1 DUP5 KECCAK256 DUP5 SWAP1 SSTORE PUSH1 0x1 PUSH1 0x1 PUSH1 0xA0 SHL SUB SWAP1 SWAP5 AND DUP4 MSTORE PUSH1 0xA DUP2 MSTORE DUP4 DUP4 KECCAK256 SWAP2 DUP4 MSTORE MSTORE SWAP1 DUP2 KECCAK256 SSTORE JUMP JUMPDEST PUSH1 0xC SLOAD PUSH1 0x0 SWAP1 PUSH2 0x207D SWAP1 PUSH1 0x1 SWAP1 PUSH2 0x260A JUMP JUMPDEST PUSH1 0x0 DUP4 DUP2 MSTORE PUSH1 0xD PUSH1 0x20 MSTORE PUSH1 0x40 DUP2 KECCAK256 SLOAD PUSH1 0xC DUP1 SLOAD SWAP4 SWAP5 POP SWAP1 SWAP3 DUP5 SWAP1 DUP2 LT PUSH2 0x20A5 JUMPI PUSH2 0x20A5 PUSH2 0x26FE JUMP JUMPDEST SWAP1 PUSH1 0x0 MSTORE PUSH1 0x20 PUSH1 0x0 KECCAK256 ADD SLOAD SWAP1 POP DUP1 PUSH1 0xC DUP4 DUP2 SLOAD DUP2 LT PUSH2 0x20C6 JUMPI PUSH2 0x20C6 PUSH2 0x26FE JUMP JUMPDEST PUSH1 0x0 SWAP2 DUP3 MSTORE PUSH1 0x20 DUP1 DUP4 KECCAK256 SWAP1 SWAP2 ADD SWAP3 SWAP1 SWAP3 SSTORE DUP3 DUP2 MSTORE PUSH1 0xD SWAP1 SWAP2 MSTORE PUSH1 0x40 DUP1 DUP3 KECCAK256 DUP5 SWAP1 SSTORE DUP6 DUP3 MSTORE DUP2 KECCAK256 SSTORE PUSH1 0xC DUP1 SLOAD DUP1 PUSH2 0x20FE JUMPI PUSH2 0x20FE PUSH2 0x29E3 JUMP JUMPDEST PUSH1 0x1 SWAP1 SUB DUP2 DUP2 SWAP1 PUSH1 0x0 MSTORE PUSH1 0x20 PUSH1 0x0 KECCAK256 ADD PUSH1 0x0 SWAP1 SSTORE SWAP1 SSTORE POP POP POP POP JUMP JUMPDEST PUSH1 0x0 PUSH2 0x2125 DUP4 PUSH2 0xB10 JUMP JUMPDEST PUSH1 0x1 PUSH1 0x1 PUSH1 0xA0 SHL SUB SWAP1 SWAP4 AND PUSH1 0x0 SWAP1 DUP2 MSTORE PUSH1 0xA PUSH1 0x20 SWAP1 DUP2 MSTORE PUSH1 0x40 DUP1 DUP4 KECCAK256 DUP7 DUP5 MSTORE DUP3 MSTORE DUP1 DUP4 KECCAK256 DUP6 SWAP1 SSTORE SWAP4 DUP3 MSTORE PUSH1 0xB SWAP1 MSTORE SWAP2 SWAP1 SWAP2 KECCAK256 SWAP2 SWAP1 SWAP2 SSTORE POP JUMP JUMPDEST PUSH1 0x1 PUSH1 0x1 PUSH1 0xE0 SHL SUB NOT DUP2 AND DUP2 EQ PUSH2 0x15AE JUMPI PUSH1 0x0 DUP1 REVERT JUMPDEST PUSH1 0x0 PUSH1 0x20 DUP3 DUP5 SUB SLT ISZERO PUSH2 0x2186 JUMPI PUSH1 0x0 DUP1 REVERT JUMPDEST DUP2 CALLDATALOAD PUSH2 0x5EB DUP2 PUSH2 0x215E JUMP JUMPDEST PUSH1 0x0 DUP1 PUSH1 0x40 DUP4 DUP6 SUB SLT ISZERO PUSH2 0x21A4 JUMPI PUSH1 0x0 DUP1 REVERT JUMPDEST POP POP DUP1 CALLDATALOAD SWAP3 PUSH1 0x20 SWAP1 SWAP2 ADD CALLDATALOAD SWAP2 POP JUMP JUMPDEST PUSH1 0x0 PUSH1 0x20 DUP3 DUP5 SUB SLT ISZERO PUSH2 0x21C5 JUMPI PUSH1 0x0 DUP1 REVERT JUMPDEST POP CALLDATALOAD SWAP2 SWAP1 POP JUMP JUMPDEST PUSH1 0x0 JUMPDEST DUP4 DUP2 LT ISZERO PUSH2 0x21E7 JUMPI DUP2 DUP2 ADD MLOAD DUP4 DUP3 ADD MSTORE PUSH1 0x20 ADD PUSH2 0x21CF JUMP JUMPDEST POP POP PUSH1 0x0 SWAP2 ADD MSTORE JUMP JUMPDEST PUSH1 0x0 DUP2 MLOAD DUP1 DUP5 MSTORE PUSH2 0x2208 DUP2 PUSH1 0x20 DUP7 ADD PUSH1 0x20 DUP7 ADD PUSH2 0x21CC JUMP JUMPDEST PUSH1 0x1F ADD PUSH1 0x1F NOT AND SWAP3 SWAP1 SWAP3 ADD PUSH1 0x20 ADD SWAP3 SWAP2 POP POP JUMP JUMPDEST PUSH1 0x20 DUP2 MSTORE PUSH1 0x0 PUSH2 0x5EB PUSH1 0x20 DUP4 ADD DUP5 PUSH2 0x21F0 JUMP JUMPDEST DUP1 CALLDATALOAD PUSH1 0x1 PUSH1 0x1 PUSH1 0xA0 SHL SUB DUP2 AND DUP2 EQ PUSH2 0x2246 JUMPI PUSH1 0x0 DUP1 REVERT JUMPDEST SWAP2 SWAP1 POP JUMP JUMPDEST PUSH1 0x0 DUP1 PUSH1 0x40 DUP4 DUP6 SUB SLT ISZERO PUSH2 0x225E JUMPI PUSH1 0x0 DUP1 REVERT JUMPDEST PUSH2 0x2267 DUP4 PUSH2 0x222F JUMP JUMPDEST SWAP5 PUSH1 0x20 SWAP4 SWAP1 SWAP4 ADD CALLDATALOAD SWAP4 POP POP POP JUMP JUMPDEST PUSH1 0x0 DUP1 PUSH1 0x0 PUSH1 0x60 DUP5 DUP7 SUB SLT ISZERO PUSH2 0x228A JUMPI PUSH1 0x0 DUP1 REVERT JUMPDEST PUSH2 0x2293 DUP5 PUSH2 0x222F JUMP JUMPDEST SWAP3 POP PUSH2 0x22A1 PUSH1 0x20 DUP6 ADD PUSH2 0x222F JUMP JUMPDEST SWAP2 POP PUSH1 0x40 DUP5 ADD CALLDATALOAD SWAP1 POP SWAP3 POP SWAP3 POP SWAP3 JUMP JUMPDEST PUSH1 0x0 PUSH1 0x20 DUP3 DUP5 SUB SLT ISZERO PUSH2 0x22C3 JUMPI PUSH1 0x0 DUP1 REVERT JUMPDEST PUSH2 0x5EB DUP3 PUSH2 0x222F JUMP JUMPDEST PUSH4 0x4E487B71 PUSH1 0xE0 SHL PUSH1 0x0 MSTORE PUSH1 0x41 PUSH1 0x4 MSTORE PUSH1 0x24 PUSH1 0x0 REVERT JUMPDEST PUSH1 0x0 PUSH8 0xFFFFFFFFFFFFFFFF DUP1 DUP5 GT ISZERO PUSH2 0x22FD JUMPI PUSH2 0x22FD PUSH2 0x22CC JUMP JUMPDEST PUSH1 0x40 MLOAD PUSH1 0x1F DUP6 ADD PUSH1 0x1F NOT SWAP1 DUP2 AND PUSH1 0x3F ADD AND DUP2 ADD SWAP1 DUP3 DUP3 GT DUP2 DUP4 LT OR ISZERO PUSH2 0x2325 JUMPI PUSH2 0x2325 PUSH2 0x22CC JUMP JUMPDEST DUP2 PUSH1 0x40 MSTORE DUP1 SWAP4 POP DUP6 DUP2 MSTORE DUP7 DUP7 DUP7 ADD GT ISZERO PUSH2 0x233E JUMPI PUSH1 0x0 DUP1 REVERT JUMPDEST DUP6 DUP6 PUSH1 0x20 DUP4 ADD CALLDATACOPY PUSH1 0x0 PUSH1 0x20 DUP8 DUP4 ADD ADD MSTORE POP POP POP SWAP4 SWAP3 POP POP POP JUMP JUMPDEST PUSH1 0x0 DUP3 PUSH1 0x1F DUP4 ADD SLT PUSH2 0x2369 JUMPI PUSH1 0x0 DUP1 REVERT JUMPDEST PUSH2 0x5EB DUP4 DUP4 CALLDATALOAD PUSH1 0x20 DUP6 ADD PUSH2 0x22E2 JUMP JUMPDEST PUSH1 0x0 DUP1 PUSH1 0x0 DUP1 PUSH1 0x0 PUSH1 0xA0 DUP7 DUP9 SUB SLT ISZERO PUSH2 0x2390 JUMPI PUSH1 0x0 DUP1 REVERT JUMPDEST DUP6 CALLDATALOAD PUSH8 0xFFFFFFFFFFFFFFFF DUP1 DUP3 GT ISZERO PUSH2 0x23A8 JUMPI PUSH1 0x0 DUP1 REVERT JUMPDEST PUSH2 0x23B4 DUP10 DUP4 DUP11 ADD PUSH2 0x2358 JUMP JUMPDEST SWAP7 POP PUSH1 0x20 DUP9 ADD CALLDATALOAD SWAP2 POP DUP1 DUP3 GT ISZERO PUSH2 0x23CA JUMPI PUSH1 0x0 DUP1 REVERT JUMPDEST PUSH2 0x23D6 DUP10 DUP4 DUP11 ADD PUSH2 0x2358 JUMP JUMPDEST SWAP6 POP PUSH1 0x40 DUP9 ADD CALLDATALOAD SWAP2 POP DUP1 DUP3 GT ISZERO PUSH2 0x23EC JUMPI PUSH1 0x0 DUP1 REVERT JUMPDEST POP PUSH2 0x23F9 DUP9 DUP3 DUP10 ADD PUSH2 0x2358 JUMP JUMPDEST SWAP4 POP POP PUSH1 0x60 DUP7 ADD CALLDATALOAD SWAP2 POP PUSH2 0x240F PUSH1 0x80 DUP8 ADD PUSH2 0x222F JUMP JUMPDEST SWAP1 POP SWAP3 SWAP6 POP SWAP3 SWAP6 SWAP1 SWAP4 POP JUMP JUMPDEST PUSH1 0x1 PUSH1 0x1 PUSH1 0xA0 SHL SUB DUP9 AND DUP2 MSTORE PUSH4 0xFFFFFFFF DUP8 DUP2 AND PUSH1 0x20 DUP4 ADD MSTORE DUP7 DUP2 AND PUSH1 0x40 DUP4 ADD MSTORE DUP6 AND PUSH1 0x60 DUP3 ADD MSTORE PUSH1 0xE0 PUSH1 0x80 DUP3 ADD DUP2 SWAP1 MSTORE PUSH1 0x0 SWAP1 PUSH2 0x245B SWAP1 DUP4 ADD DUP7 PUSH2 0x21F0 JUMP JUMPDEST DUP3 DUP2 SUB PUSH1 0xA0 DUP5 ADD MSTORE PUSH2 0x246D DUP2 DUP7 PUSH2 0x21F0 JUMP JUMPDEST SWAP1 POP DUP3 DUP2 SUB PUSH1 0xC0 DUP5 ADD MSTORE PUSH2 0x2481 DUP2 DUP6 PUSH2 0x21F0 JUMP JUMPDEST SWAP11 SWAP10 POP POP POP POP POP POP POP POP POP POP JUMP JUMPDEST PUSH1 0x0 DUP1 PUSH1 0x40 DUP4 DUP6 SUB SLT ISZERO PUSH2 0x24A2 JUMPI PUSH1 0x0 DUP1 REVERT JUMPDEST DUP3 CALLDATALOAD SWAP2 POP PUSH2 0x24B2 PUSH1 0x20 DUP5 ADD PUSH2 0x222F JUMP JUMPDEST SWAP1 POP SWAP3 POP SWAP3 SWAP1 POP JUMP JUMPDEST PUSH1 0x0 DUP1 PUSH1 0x40 DUP4 DUP6 SUB SLT ISZERO PUSH2 0x24CE JUMPI PUSH1 0x0 DUP1 REVERT JUMPDEST PUSH2 0x24D7 DUP4 PUSH2 0x222F JUMP JUMPDEST SWAP2 POP PUSH1 0x20 DUP4 ADD CALLDATALOAD DUP1 ISZERO ISZERO DUP2 EQ PUSH2 0x24EC JUMPI PUSH1 0x0 DUP1 REVERT JUMPDEST DUP1 SWAP2 POP POP SWAP3 POP SWAP3 SWAP1 POP JUMP JUMPDEST PUSH1 0x20 DUP1 DUP3 MSTORE DUP3 MLOAD DUP3 DUP3 ADD DUP2 SWAP1 MSTORE PUSH1 0x0 SWAP2 SWAP1 DUP5 DUP3 ADD SWAP1 PUSH1 0x40 DUP6 ADD SWAP1 DUP5 JUMPDEST DUP2 DUP2 LT ISZERO PUSH2 0x252F JUMPI DUP4 MLOAD DUP4 MSTORE SWAP3 DUP5 ADD SWAP3 SWAP2 DUP5 ADD SWAP2 PUSH1 0x1 ADD PUSH2 0x2513 JUMP JUMPDEST POP SWAP1 SWAP7 SWAP6 POP POP POP POP POP POP JUMP JUMPDEST PUSH1 0x0 DUP1 PUSH1 0x0 DUP1 PUSH1 0x80 DUP6 DUP8 SUB SLT ISZERO PUSH2 0x2551 JUMPI PUSH1 0x0 DUP1 REVERT JUMPDEST PUSH2 0x255A DUP6 PUSH2 0x222F JUMP JUMPDEST SWAP4 POP PUSH2 0x2568 PUSH1 0x20 DUP7 ADD PUSH2 0x222F JUMP JUMPDEST SWAP3 POP PUSH1 0x40 DUP6 ADD CALLDATALOAD SWAP2 POP PUSH1 0x60 DUP6 ADD CALLDATALOAD PUSH8 0xFFFFFFFFFFFFFFFF DUP2 GT ISZERO PUSH2 0x258B JUMPI PUSH1 0x0 DUP1 REVERT JUMPDEST DUP6 ADD PUSH1 0x1F DUP2 ADD DUP8 SGT PUSH2 0x259C JUMPI PUSH1 0x0 DUP1 REVERT JUMPDEST PUSH2 0x25AB DUP8 DUP3 CALLDATALOAD PUSH1 0x20 DUP5 ADD PUSH2 0x22E2 JUMP JUMPDEST SWAP2 POP POP SWAP3 SWAP6 SWAP2 SWAP5 POP SWAP3 POP JUMP JUMPDEST PUSH1 0x0 DUP1 PUSH1 0x40 DUP4 DUP6 SUB SLT ISZERO PUSH2 0x25CA JUMPI PUSH1 0x0 DUP1 REVERT JUMPDEST PUSH2 0x25D3 DUP4 PUSH2 0x222F JUMP JUMPDEST SWAP2 POP PUSH2 0x24B2 PUSH1 0x20 DUP5 ADD PUSH2 0x222F JUMP JUMPDEST PUSH4 0x4E487B71 PUSH1 0xE0 SHL PUSH1 0x0 MSTORE PUSH1 0x11 PUSH1 0x4 MSTORE PUSH1 0x24 PUSH1 0x0 REVERT JUMPDEST DUP1 DUP3 ADD DUP1 DUP3 GT ISZERO PUSH2 0x53C JUMPI PUSH2 0x53C PUSH2 0x25E1 JUMP JUMPDEST DUP2 DUP2 SUB DUP2 DUP2 GT ISZERO PUSH2 0x53C JUMPI PUSH2 0x53C PUSH2 0x25E1 JUMP JUMPDEST PUSH1 0x1 DUP2 DUP2 SHR SWAP1 DUP3 AND DUP1 PUSH2 0x2631 JUMPI PUSH1 0x7F DUP3 AND SWAP2 POP JUMPDEST PUSH1 0x20 DUP3 LT DUP2 SUB PUSH2 0x2651 JUMPI PUSH4 0x4E487B71 PUSH1 0xE0 SHL PUSH1 0x0 MSTORE PUSH1 0x22 PUSH1 0x4 MSTORE PUSH1 0x24 PUSH1 0x0 REVERT JUMPDEST POP SWAP2 SWAP1 POP JUMP JUMPDEST PUSH1 0x20 DUP1 DUP3 MSTORE PUSH1 0x2D SWAP1 DUP3 ADD MSTORE PUSH32 0x4552433732313A2063616C6C6572206973206E6F7420746F6B656E206F776E65 PUSH1 0x40 DUP3 ADD MSTORE PUSH13 0x1C881BDC88185C1C1C9BDD9959 PUSH1 0x9A SHL PUSH1 0x60 DUP3 ADD MSTORE PUSH1 0x80 ADD SWAP1 JUMP JUMPDEST PUSH4 0xFFFFFFFF DUP2 DUP2 AND DUP4 DUP3 AND ADD SWAP1 DUP1 DUP3 GT ISZERO PUSH2 0x26C1 JUMPI PUSH2 0x26C1 PUSH2 0x25E1 JUMP JUMPDEST POP SWAP3 SWAP2 POP POP JUMP JUMPDEST PUSH4 0xFFFFFFFF DUP3 DUP2 AND DUP3 DUP3 AND SUB SWAP1 DUP1 DUP3 GT ISZERO PUSH2 0x26C1 JUMPI PUSH2 0x26C1 PUSH2 0x25E1 JUMP JUMPDEST PUSH1 0x0 PUSH1 0x1 DUP3 ADD PUSH2 0x26F7 JUMPI PUSH2 0x26F7 PUSH2 0x25E1 JUMP JUMPDEST POP PUSH1 0x1 ADD SWAP1 JUMP JUMPDEST PUSH4 0x4E487B71 PUSH1 0xE0 SHL PUSH1 0x0 MSTORE PUSH1 0x32 PUSH1 0x4 MSTORE PUSH1 0x24 PUSH1 0x0 REVERT JUMPDEST PUSH1 0x1F DUP3 GT ISZERO PUSH2 0x865 JUMPI PUSH1 0x0 DUP2 DUP2 MSTORE PUSH1 0x20 DUP2 KECCAK256 PUSH1 0x1F DUP6 ADD PUSH1 0x5 SHR DUP2 ADD PUSH1 0x20 DUP7 LT ISZERO PUSH2 0x273B JUMPI POP DUP1 JUMPDEST PUSH1 0x1F DUP6 ADD PUSH1 0x5 SHR DUP3 ADD SWAP2 POP JUMPDEST DUP2 DUP2 LT ISZERO PUSH2 0x275A JUMPI DUP3 DUP2 SSTORE PUSH1 0x1 ADD PUSH2 0x2747 JUMP JUMPDEST POP POP POP POP POP POP JUMP JUMPDEST DUP2 MLOAD PUSH8 0xFFFFFFFFFFFFFFFF DUP2 GT ISZERO PUSH2 0x277C JUMPI PUSH2 0x277C PUSH2 0x22CC JUMP JUMPDEST PUSH2 0x2790 DUP2 PUSH2 0x278A DUP5 SLOAD PUSH2 0x261D JUMP JUMPDEST DUP5 PUSH2 0x2714 JUMP JUMPDEST PUSH1 0x20 DUP1 PUSH1 0x1F DUP4 GT PUSH1 0x1 DUP2 EQ PUSH2 0x27C5 JUMPI PUSH1 0x0 DUP5 ISZERO PUSH2 0x27AD JUMPI POP DUP6 DUP4 ADD MLOAD JUMPDEST PUSH1 0x0 NOT PUSH1 0x3 DUP7 SWAP1 SHL SHR NOT AND PUSH1 0x1 DUP6 SWAP1 SHL OR DUP6 SSTORE PUSH2 0x275A JUMP JUMPDEST PUSH1 0x0 DUP6 DUP2 MSTORE PUSH1 0x20 DUP2 KECCAK256 PUSH1 0x1F NOT DUP7 AND SWAP2 JUMPDEST DUP3 DUP2 LT ISZERO PUSH2 0x27F4 JUMPI DUP9 DUP7 ADD MLOAD DUP3 SSTORE SWAP5 DUP5 ADD SWAP5 PUSH1 0x1 SWAP1 SWAP2 ADD SWAP1 DUP5 ADD PUSH2 0x27D5 JUMP JUMPDEST POP DUP6 DUP3 LT ISZERO PUSH2 0x2812 JUMPI DUP8 DUP6 ADD MLOAD PUSH1 0x0 NOT PUSH1 0x3 DUP9 SWAP1 SHL PUSH1 0xF8 AND SHR NOT AND DUP2 SSTORE JUMPDEST POP POP POP POP POP PUSH1 0x1 SWAP1 DUP2 SHL ADD SWAP1 SSTORE POP JUMP JUMPDEST PUSH1 0xA0 DUP2 MSTORE PUSH1 0x0 PUSH2 0x2835 PUSH1 0xA0 DUP4 ADD DUP9 PUSH2 0x21F0 JUMP JUMPDEST DUP3 DUP2 SUB PUSH1 0x20 DUP5 ADD MSTORE PUSH2 0x2847 DUP2 DUP9 PUSH2 0x21F0 JUMP JUMPDEST SWAP1 POP DUP3 DUP2 SUB PUSH1 0x40 DUP5 ADD MSTORE PUSH2 0x285B DUP2 DUP8 PUSH2 0x21F0 JUMP JUMPDEST PUSH1 0x60 DUP5 ADD SWAP6 SWAP1 SWAP6 MSTORE POP POP PUSH1 0x1 PUSH1 0x1 PUSH1 0xA0 SHL SUB SWAP2 SWAP1 SWAP2 AND PUSH1 0x80 SWAP1 SWAP2 ADD MSTORE SWAP4 SWAP3 POP POP POP JUMP JUMPDEST PUSH1 0x0 PUSH4 0xFFFFFFFF DUP1 DUP4 AND DUP2 DUP2 SUB PUSH2 0x2897 JUMPI PUSH2 0x2897 PUSH2 0x25E1 JUMP JUMPDEST PUSH1 0x1 ADD SWAP4 SWAP3 POP POP POP JUMP JUMPDEST PUSH1 0x0 DUP4 MLOAD PUSH2 0x28B3 DUP2 DUP5 PUSH1 0x20 DUP9 ADD PUSH2 0x21CC JUMP JUMPDEST DUP4 MLOAD SWAP1 DUP4 ADD SWAP1 PUSH2 0x28C7 DUP2 DUP4 PUSH1 0x20 DUP9 ADD PUSH2 0x21CC JUMP JUMPDEST ADD SWAP5 SWAP4 POP POP POP POP JUMP JUMPDEST PUSH1 0x20 DUP1 DUP3 MSTORE PUSH1 0x25 SWAP1 DUP3 ADD MSTORE PUSH32 0x4552433732313A207472616E736665722066726F6D20696E636F727265637420 PUSH1 0x40 DUP3 ADD MSTORE PUSH5 0x37BBB732B9 PUSH1 0xD9 SHL PUSH1 0x60 DUP3 ADD MSTORE PUSH1 0x80 ADD SWAP1 JUMP JUMPDEST PUSH1 0x20 DUP1 DUP3 MSTORE PUSH1 0x32 SWAP1 DUP3 ADD MSTORE PUSH32 0x4552433732313A207472616E7366657220746F206E6F6E204552433732315265 PUSH1 0x40 DUP3 ADD MSTORE PUSH18 0x31B2B4BB32B91034B6B83632B6B2B73A32B9 PUSH1 0x71 SHL PUSH1 0x60 DUP3 ADD MSTORE PUSH1 0x80 ADD SWAP1 JUMP JUMPDEST PUSH1 0x0 DUP3 PUSH2 0x2984 JUMPI PUSH4 0x4E487B71 PUSH1 0xE0 SHL PUSH1 0x0 MSTORE PUSH1 0x12 PUSH1 0x4 MSTORE PUSH1 0x24 PUSH1 0x0 REVERT JUMPDEST POP DIV SWAP1 JUMP JUMPDEST PUSH1 0x1 PUSH1 0x1 PUSH1 0xA0 SHL SUB DUP6 DUP2 AND DUP3 MSTORE DUP5 AND PUSH1 0x20 DUP3 ADD MSTORE PUSH1 0x40 DUP2 ADD DUP4 SWAP1 MSTORE PUSH1 0x80 PUSH1 0x60 DUP3 ADD DUP2 SWAP1 MSTORE PUSH1 0x0 SWAP1 PUSH2 0x29BC SWAP1 DUP4 ADD DUP5 PUSH2 0x21F0 JUMP JUMPDEST SWAP7 SWAP6 POP POP POP POP POP POP JUMP JUMPDEST PUSH1 0x0 PUSH1 0x20 DUP3 DUP5 SUB SLT ISZERO PUSH2 0x29D8 JUMPI PUSH1 0x0 DUP1 REVERT JUMPDEST DUP2 MLOAD PUSH2 0x5EB DUP2 PUSH2 0x215E JUMP JUMPDEST PUSH4 0x4E487B71 PUSH1 0xE0 SHL PUSH1 0x0 MSTORE PUSH1 0x31 PUSH1 0x4 MSTORE PUSH1 0x24 PUSH1 0x0 REVERT INVALID LOG2 PUSH5 0x6970667358 0x22 SLT KECCAK256 DUP10 0xE9 0x2A 0xCF OR EXTCODEHASH 0xFB SHR SWAP14 PUSH24 0x517FA991FCFEDC94CB66C3331DD67BAC3B9ED30297FC6473 PUSH16 0x6C634300081300330000000000000000 "},"methodIdentifiers":{"addCluster(string,string,string,uint256,address)":"84e4735f","approve(address,uint256)":"095ea7b3","balanceOf(address)":"70a08231","balanceOfWithin(address,uint256)":"3c5640f2","clusterIdByOwners(address,uint256)":"d4fa5203","clusterOf(uint256)":"dc36e281","clusterOwner(uint256)":"3a939a9a","clusters(uint256)":"919500c0","clustersByOwner(address)":"b51beb93","clustersCount()":"9a96f0b1","getApproved(uint256)":"081812fc","getInterfaceId()":"6b9241fc","isApprovedForAll(address,address)":"e985e9c5","maxSize()":"2565b159","mint(uint256,address)":"94bf804d","name()":"06fdde03","nameOf(uint256)":"051a2664","normalizedTokenId(uint256)":"f43d0a38","ownerOf(uint256)":"6352211e","ownerOfWithin(uint256,uint256)":"0343d2a0","rangeOf(uint256)":"31580311","safeTransferFrom(address,address,uint256)":"42842e0e","safeTransferFrom(address,address,uint256,bytes)":"b88d4fde","setApprovalForAll(address,bool)":"a22cb465","supplyWithin(uint256)":"ba108f50","supportsInterface(bytes4)":"01ffc9a7","symbol()":"95d89b41","symbolOf(uint256)":"75cfbe6c","tokenByIndex(uint256)":"4f6ccce7","tokenOfOwnerByIndex(address,uint256)":"2f745c59","tokenURI(uint256)":"c87b56dd","totalSupply()":"18160ddd","transferClusterOwnership(uint256,address)":"c71ca216","transferFrom(address,address,uint256)":"23b872dd"}}}}}