{
  "_format": "hh-sol-artifact-1",
  "contractName": "ClusteredNFT",
  "sourceName": "contracts/ClusteredNFT.sol",
  "abi": [
    {
      "inputs": [
        {
          "internalType": "string",
          "name": "name",
          "type": "string"
        },
        {
          "internalType": "string",
          "name": "symbol",
          "type": "string"
        }
      ],
      "stateMutability": "nonpayable",
      "type": "constructor"
    },
    {
      "inputs": [],
      "name": "ClusterFull",
      "type": "error"
    },
    {
      "inputs": [],
      "name": "ClusterNotFound",
      "type": "error"
    },
    {
      "inputs": [],
      "name": "NotClusterOwner",
      "type": "error"
    },
    {
      "inputs": [],
      "name": "SizeTooLarge",
      "type": "error"
    },
    {
      "inputs": [],
      "name": "TokenDoesNotExist",
      "type": "error"
    },
    {
      "inputs": [],
      "name": "ZeroAddress",
      "type": "error"
    },
    {
      "anonymous": false,
      "inputs": [
        {
          "indexed": true,
          "internalType": "address",
          "name": "owner",
          "type": "address"
        },
        {
          "indexed": true,
          "internalType": "address",
          "name": "approved",
          "type": "address"
        },
        {
          "indexed": true,
          "internalType": "uint256",
          "name": "tokenId",
          "type": "uint256"
        }
      ],
      "name": "Approval",
      "type": "event"
    },
    {
      "anonymous": false,
      "inputs": [
        {
          "indexed": true,
          "internalType": "address",
          "name": "owner",
          "type": "address"
        },
        {
          "indexed": true,
          "internalType": "address",
          "name": "operator",
          "type": "address"
        },
        {
          "indexed": false,
          "internalType": "bool",
          "name": "approved",
          "type": "bool"
        }
      ],
      "name": "ApprovalForAll",
      "type": "event"
    },
    {
      "anonymous": false,
      "inputs": [
        {
          "indexed": true,
          "internalType": "uint256",
          "name": "clusterId",
          "type": "uint256"
        },
        {
          "indexed": false,
          "internalType": "string",
          "name": "name",
          "type": "string"
        },
        {
          "indexed": false,
          "internalType": "string",
          "name": "symbol",
          "type": "string"
        },
        {
          "indexed": false,
          "internalType": "string",
          "name": "baseTokenURI",
          "type": "string"
        },
        {
          "indexed": false,
          "internalType": "uint256",
          "name": "size",
          "type": "uint256"
        },
        {
          "indexed": false,
          "internalType": "address",
          "name": "owner",
          "type": "address"
        }
      ],
      "name": "ClusterAdded",
      "type": "event"
    },
    {
      "anonymous": false,
      "inputs": [
        {
          "indexed": true,
          "internalType": "uint256",
          "name": "clusterId",
          "type": "uint256"
        },
        {
          "indexed": true,
          "internalType": "address",
          "name": "newOwner",
          "type": "address"
        }
      ],
      "name": "ClusterOwnershipTransferred",
      "type": "event"
    },
    {
      "anonymous": false,
      "inputs": [
        {
          "indexed": true,
          "internalType": "address",
          "name": "from",
          "type": "address"
        },
        {
          "indexed": true,
          "internalType": "address",
          "name": "to",
          "type": "address"
        },
        {
          "indexed": true,
          "internalType": "uint256",
          "name": "tokenId",
          "type": "uint256"
        }
      ],
      "name": "Transfer",
      "type": "event"
    },
    {
      "inputs": [
        {
          "internalType": "string",
          "name": "name",
          "type": "string"
        },
        {
          "internalType": "string",
          "name": "symbol",
          "type": "string"
        },
        {
          "internalType": "string",
          "name": "baseTokenURI",
          "type": "string"
        },
        {
          "internalType": "uint256",
          "name": "size",
          "type": "uint256"
        },
        {
          "internalType": "address",
          "name": "clusterOwner_",
          "type": "address"
        }
      ],
      "name": "addCluster",
      "outputs": [],
      "stateMutability": "nonpayable",
      "type": "function"
    },
    {
      "inputs": [
        {
          "internalType": "address",
          "name": "to",
          "type": "address"
        },
        {
          "internalType": "uint256",
          "name": "tokenId",
          "type": "uint256"
        }
      ],
      "name": "approve",
      "outputs": [],
      "stateMutability": "nonpayable",
      "type": "function"
    },
    {
      "inputs": [
        {
          "internalType": "address",
          "name": "owner",
          "type": "address"
        }
      ],
      "name": "balanceOf",
      "outputs": [
        {
          "internalType": "uint256",
          "name": "",
          "type": "uint256"
        }
      ],
      "stateMutability": "view",
      "type": "function"
    },
    {
      "inputs": [
        {
          "internalType": "address",
          "name": "",
          "type": "address"
        },
        {
          "internalType": "uint256",
          "name": "",
          "type": "uint256"
        }
      ],
      "name": "clusterIdByOwners",
      "outputs": [
        {
          "internalType": "uint256",
          "name": "",
          "type": "uint256"
        }
      ],
      "stateMutability": "view",
      "type": "function"
    },
    {
      "inputs": [
        {
          "internalType": "uint256",
          "name": "tokenId",
          "type": "uint256"
        }
      ],
      "name": "clusterOf",
      "outputs": [
        {
          "internalType": "uint256",
          "name": "",
          "type": "uint256"
        }
      ],
      "stateMutability": "view",
      "type": "function"
    },
    {
      "inputs": [
        {
          "internalType": "uint256",
          "name": "clusterId",
          "type": "uint256"
        }
      ],
      "name": "clusterOwner",
      "outputs": [
        {
          "internalType": "address",
          "name": "",
          "type": "address"
        }
      ],
      "stateMutability": "view",
      "type": "function"
    },
    {
      "inputs": [
        {
          "internalType": "uint256",
          "name": "",
          "type": "uint256"
        }
      ],
      "name": "clusters",
      "outputs": [
        {
          "internalType": "address",
          "name": "owner",
          "type": "address"
        },
        {
          "internalType": "uint32",
          "name": "size",
          "type": "uint32"
        },
        {
          "internalType": "uint32",
          "name": "firstTokenId",
          "type": "uint32"
        },
        {
          "internalType": "uint32",
          "name": "nextTokenId",
          "type": "uint32"
        },
        {
          "internalType": "string",
          "name": "name",
          "type": "string"
        },
        {
          "internalType": "string",
          "name": "symbol",
          "type": "string"
        },
        {
          "internalType": "string",
          "name": "baseTokenURI",
          "type": "string"
        }
      ],
      "stateMutability": "view",
      "type": "function"
    },
    {
      "inputs": [
        {
          "internalType": "address",
          "name": "owner",
          "type": "address"
        }
      ],
      "name": "clustersByOwner",
      "outputs": [
        {
          "internalType": "uint256[]",
          "name": "",
          "type": "uint256[]"
        }
      ],
      "stateMutability": "view",
      "type": "function"
    },
    {
      "inputs": [],
      "name": "clustersCount",
      "outputs": [
        {
          "internalType": "uint256",
          "name": "",
          "type": "uint256"
        }
      ],
      "stateMutability": "view",
      "type": "function"
    },
    {
      "inputs": [
        {
          "internalType": "uint256",
          "name": "tokenId",
          "type": "uint256"
        }
      ],
      "name": "getApproved",
      "outputs": [
        {
          "internalType": "address",
          "name": "",
          "type": "address"
        }
      ],
      "stateMutability": "view",
      "type": "function"
    },
    {
      "inputs": [],
      "name": "getInterfaceId",
      "outputs": [
        {
          "internalType": "bytes4",
          "name": "",
          "type": "bytes4"
        }
      ],
      "stateMutability": "pure",
      "type": "function"
    },
    {
      "inputs": [
        {
          "internalType": "address",
          "name": "owner",
          "type": "address"
        },
        {
          "internalType": "address",
          "name": "operator",
          "type": "address"
        }
      ],
      "name": "isApprovedForAll",
      "outputs": [
        {
          "internalType": "bool",
          "name": "",
          "type": "bool"
        }
      ],
      "stateMutability": "view",
      "type": "function"
    },
    {
      "inputs": [],
      "name": "maxSize",
      "outputs": [
        {
          "internalType": "uint256",
          "name": "",
          "type": "uint256"
        }
      ],
      "stateMutability": "view",
      "type": "function"
    },
    {
      "inputs": [
        {
          "internalType": "uint256",
          "name": "clusterId",
          "type": "uint256"
        },
        {
          "internalType": "address",
          "name": "to",
          "type": "address"
        }
      ],
      "name": "mint",
      "outputs": [],
      "stateMutability": "nonpayable",
      "type": "function"
    },
    {
      "inputs": [],
      "name": "name",
      "outputs": [
        {
          "internalType": "string",
          "name": "",
          "type": "string"
        }
      ],
      "stateMutability": "view",
      "type": "function"
    },
    {
      "inputs": [
        {
          "internalType": "uint256",
          "name": "clusterId",
          "type": "uint256"
        }
      ],
      "name": "nameOf",
      "outputs": [
        {
          "internalType": "string",
          "name": "",
          "type": "string"
        }
      ],
      "stateMutability": "view",
      "type": "function"
    },
    {
      "inputs": [
        {
          "internalType": "uint256",
          "name": "tokenId",
          "type": "uint256"
        }
      ],
      "name": "normalizedTokenId",
      "outputs": [
        {
          "internalType": "uint256",
          "name": "",
          "type": "uint256"
        }
      ],
      "stateMutability": "view",
      "type": "function"
    },
    {
      "inputs": [
        {
          "internalType": "uint256",
          "name": "tokenId",
          "type": "uint256"
        }
      ],
      "name": "ownerOf",
      "outputs": [
        {
          "internalType": "address",
          "name": "",
          "type": "address"
        }
      ],
      "stateMutability": "view",
      "type": "function"
    },
    {
      "inputs": [
        {
          "internalType": "uint256",
          "name": "normalizedTokenId_",
          "type": "uint256"
        },
        {
          "internalType": "uint256",
          "name": "clusterId",
          "type": "uint256"
        }
      ],
      "name": "ownerOfWithin",
      "outputs": [
        {
          "internalType": "address",
          "name": "",
          "type": "address"
        }
      ],
      "stateMutability": "view",
      "type": "function"
    },
    {
      "inputs": [
        {
          "internalType": "uint256",
          "name": "clusterId",
          "type": "uint256"
        }
      ],
      "name": "rangeOf",
      "outputs": [
        {
          "internalType": "uint256",
          "name": "",
          "type": "uint256"
        },
        {
          "internalType": "uint256",
          "name": "",
          "type": "uint256"
        }
      ],
      "stateMutability": "view",
      "type": "function"
    },
    {
      "inputs": [
        {
          "internalType": "address",
          "name": "from",
          "type": "address"
        },
        {
          "internalType": "address",
          "name": "to",
          "type": "address"
        },
        {
          "internalType": "uint256",
          "name": "tokenId",
          "type": "uint256"
        }
      ],
      "name": "safeTransferFrom",
      "outputs": [],
      "stateMutability": "nonpayable",
      "type": "function"
    },
    {
      "inputs": [
        {
          "internalType": "address",
          "name": "from",
          "type": "address"
        },
        {
          "internalType": "address",
          "name": "to",
          "type": "address"
        },
        {
          "internalType": "uint256",
          "name": "tokenId",
          "type": "uint256"
        },
        {
          "internalType": "bytes",
          "name": "data",
          "type": "bytes"
        }
      ],
      "name": "safeTransferFrom",
      "outputs": [],
      "stateMutability": "nonpayable",
      "type": "function"
    },
    {
      "inputs": [
        {
          "internalType": "address",
          "name": "operator",
          "type": "address"
        },
        {
          "internalType": "bool",
          "name": "approved",
          "type": "bool"
        }
      ],
      "name": "setApprovalForAll",
      "outputs": [],
      "stateMutability": "nonpayable",
      "type": "function"
    },
    {
      "inputs": [
        {
          "internalType": "uint256",
          "name": "clusterId",
          "type": "uint256"
        }
      ],
      "name": "supplyWithin",
      "outputs": [
        {
          "internalType": "uint256",
          "name": "",
          "type": "uint256"
        }
      ],
      "stateMutability": "view",
      "type": "function"
    },
    {
      "inputs": [
        {
          "internalType": "bytes4",
          "name": "interfaceId",
          "type": "bytes4"
        }
      ],
      "name": "supportsInterface",
      "outputs": [
        {
          "internalType": "bool",
          "name": "",
          "type": "bool"
        }
      ],
      "stateMutability": "view",
      "type": "function"
    },
    {
      "inputs": [],
      "name": "symbol",
      "outputs": [
        {
          "internalType": "string",
          "name": "",
          "type": "string"
        }
      ],
      "stateMutability": "view",
      "type": "function"
    },
    {
      "inputs": [
        {
          "internalType": "uint256",
          "name": "clusterId",
          "type": "uint256"
        }
      ],
      "name": "symbolOf",
      "outputs": [
        {
          "internalType": "string",
          "name": "",
          "type": "string"
        }
      ],
      "stateMutability": "view",
      "type": "function"
    },
    {
      "inputs": [
        {
          "internalType": "uint256",
          "name": "tokenId",
          "type": "uint256"
        }
      ],
      "name": "tokenURI",
      "outputs": [
        {
          "internalType": "string",
          "name": "",
          "type": "string"
        }
      ],
      "stateMutability": "view",
      "type": "function"
    },
    {
      "inputs": [
        {
          "internalType": "uint256",
          "name": "clusterId",
          "type": "uint256"
        },
        {
          "internalType": "address",
          "name": "newOwner",
          "type": "address"
        }
      ],
      "name": "transferClusterOwnership",
      "outputs": [],
      "stateMutability": "nonpayable",
      "type": "function"
    },
    {
      "inputs": [
        {
          "internalType": "address",
          "name": "from",
          "type": "address"
        },
        {
          "internalType": "address",
          "name": "to",
          "type": "address"
        },
        {
          "internalType": "uint256",
          "name": "tokenId",
          "type": "uint256"
        }
      ],
      "name": "transferFrom",
      "outputs": [],
      "stateMutability": "nonpayable",
      "type": "function"
    }
  ],
  "bytecode": "0x60806040526127106008553480156200001757600080fd5b50604051620027ba380380620027ba8339810160408190526200003a9162000129565b818160006200004a838262000222565b50600162000059828262000222565b5050505050620002ee565b634e487b7160e01b600052604160045260246000fd5b600082601f8301126200008c57600080fd5b81516001600160401b0380821115620000a957620000a962000064565b604051601f8301601f19908116603f01168101908282118183101715620000d457620000d462000064565b81604052838152602092508683858801011115620000f157600080fd5b600091505b83821015620001155785820183015181830184015290820190620000f6565b600093810190920192909252949350505050565b600080604083850312156200013d57600080fd5b82516001600160401b03808211156200015557600080fd5b62000163868387016200007a565b935060208501519150808211156200017a57600080fd5b5062000189858286016200007a565b9150509250929050565b600181811c90821680620001a857607f821691505b602082108103620001c957634e487b7160e01b600052602260045260246000fd5b50919050565b601f8211156200021d57600081815260208120601f850160051c81016020861015620001f85750805b601f850160051c820191505b81811015620002195782815560010162000204565b5050505b505050565b81516001600160401b038111156200023e576200023e62000064565b62000256816200024f845462000193565b84620001cf565b602080601f8311600181146200028e5760008415620002755750858301515b600019600386901b1c1916600185901b17855562000219565b600085815260208120601f198616915b82811015620002bf578886015182559484019460019091019084016200029e565b5085821015620002de5787850151600019600388901b60f8161c191681555b5050505050600190811b01905550565b6124bc80620002fe6000396000f3fe608060405234801561001057600080fd5b50600436106101da5760003560e01c806384e4735f11610104578063b88d4fde116100a2578063d4fa520311610071578063d4fa520314610439578063dc36e2811461044c578063e985e9c51461045f578063f43d0a381461049b57600080fd5b8063b88d4fde146103ed578063ba108f5014610400578063c71ca21614610413578063c87b56dd1461042657600080fd5b806395d89b41116100de57806395d89b41146103aa5780639a96f0b1146103b2578063a22cb465146103ba578063b51beb93146103cd57600080fd5b806384e4735f1461035e578063919500c01461037157806394bf804d1461039757600080fd5b80632565b1591161017c5780636352211e1161014b5780636352211e146103105780636b9241fc1461032357806370a082311461033857806375cfbe6c1461034b57600080fd5b80632565b1591461029557806331580311146102ac5780633a939a9a146102d457806342842e0e146102fd57600080fd5b806306fdde03116101b857806306fdde0314610252578063081812fc1461025a578063095ea7b31461026d57806323b872dd1461028257600080fd5b806301ffc9a7146101df5780630343d2a014610207578063051a266414610232575b600080fd5b6101f26101ed366004611c2d565b6104ae565b60405190151581526020015b60405180910390f35b61021a610215366004611c4a565b6104d9565b6040516001600160a01b0390911681526020016101fe565b610245610240366004611c6c565b610589565b6040516101fe9190611cd5565b61024561062e565b61021a610268366004611c6c565b6106c0565b61028061027b366004611d04565b6106e7565b005b610280610290366004611d2e565b610801565b61029e60085481565b6040519081526020016101fe565b6102bf6102ba366004611c6c565b610832565b604080519283526020830191909152016101fe565b61021a6102e2366004611c6c565b6000908152600660205260409020546001600160a01b031690565b61028061030b366004611d2e565b610883565b61021a61031e366004611c6c565b61089e565b604051633d0d0dc960e21b81526020016101fe565b61029e610346366004611d6a565b6108fe565b610245610359366004611c6c565b610984565b61028061036c366004611e31565b6109a4565b61038461037f366004611c6c565b610c2d565b6040516101fe9796959493929190611ed4565b6102806103a5366004611f48565b610e1b565b610245610f60565b60095461029e565b6102806103c8366004611f74565b610f6f565b6103e06103db366004611d6a565b610f7a565b6040516101fe9190611fb0565b6102806103fb366004611ff4565b610fe5565b61029e61040e366004611c6c565b61101d565b610280610421366004611f48565b611058565b610245610434366004611c6c565b61110f565b61029e610447366004611d04565b611253565b61029e61045a366004611c6c565b611284565b6101f261046d366004612070565b6001600160a01b03918216600090815260056020908152604080832093909416825291909152205460ff1690565b61029e6104a9366004611c6c565b6112b4565b6000633d0d0dc960e21b6001600160e01b0319831614806104d357506104d382611318565b92915050565b6000818152600660205260408120546001600160a01b031661050e57604051631eaebd1960e11b815260040160405180910390fd5b600082815260066020526040902054600160a01b900463ffffffff1683111561054a5760405163677510db60e11b815260040160405180910390fd5b60008281526006602052604090205461058290600190610578908690600160c01b900463ffffffff166120b0565b61031e91906120c3565b9392505050565b60008181526006602052604090206001018054606091906105a9906120d6565b80601f01602080910402602001604051908101604052809291908181526020018280546105d5906120d6565b80156106225780601f106105f757610100808354040283529160200191610622565b820191906000526020600020905b81548152906001019060200180831161060557829003601f168201915b50505050509050919050565b60606000805461063d906120d6565b80601f0160208091040260200160405190810160405280929190818152602001828054610669906120d6565b80156106b65780601f1061068b576101008083540402835291602001916106b6565b820191906000526020600020905b81548152906001019060200180831161069957829003601f168201915b5050505050905090565b60006106cb82611368565b506000908152600460205260409020546001600160a01b031690565b60006106f28261089e565b9050806001600160a01b0316836001600160a01b0316036107645760405162461bcd60e51b815260206004820152602160248201527f4552433732313a20617070726f76616c20746f2063757272656e74206f776e656044820152603960f91b60648201526084015b60405180910390fd5b336001600160a01b03821614806107805750610780813361046d565b6107f25760405162461bcd60e51b815260206004820152603d60248201527f4552433732313a20617070726f76652063616c6c6572206973206e6f7420746f60448201527f6b656e206f776e6572206f7220617070726f76656420666f7220616c6c000000606482015260840161075b565b6107fc83836113ca565b505050565b61080b3382611438565b6108275760405162461bcd60e51b815260040161075b90612110565b6107fc8383836114b6565b600081815260066020526040812054819063ffffffff600160c01b820481169160019161086791600160a01b9004168361215d565b6108719190612181565b63ffffffff9182169591169350915050565b6107fc83838360405180602001604052806000815250610fe5565b6000818152600260205260408120546001600160a01b0316806104d35760405162461bcd60e51b8152602060048201526018602482015277115490cdcc8c4e881a5b9d985b1a59081d1bdad95b88125160421b604482015260640161075b565b60006001600160a01b0382166109685760405162461bcd60e51b815260206004820152602960248201527f4552433732313a2061646472657373207a65726f206973206e6f7420612076616044820152683634b21037bbb732b960b91b606482015260840161075b565b506001600160a01b031660009081526003602052604090205490565b60008181526006602052604090206002018054606091906105a9906120d6565b6001600160a01b0381166109cb5760405163d92e233d60e01b815260040160405180910390fd5b6008548211156109ee5760405163033de1f160e21b815260040160405180910390fd5b60095460009015610a7e576001600660006001600954610a0e91906120c3565b815260200190815260200160002060000160149054906101000a900463ffffffff16600660006001600954610a4391906120c3565b8152602081019190915260400160002054610a6b9190600160c01b900463ffffffff1661215d565b610a759190612181565b63ffffffff1690505b6040805160e0810182526001600160a01b038416815263ffffffff85166020820152908101610aae8360016120b0565b63ffffffff168152602001610ac48360016120b0565b63ffffffff908116825260208083018a905260408084018a90526060938401899052600954600090815260068352819020855181549387015192870151958701518516600160e01b026001600160e01b03968616600160c01b02969096166001600160c01b0393909516600160a01b026001600160c01b03199094166001600160a01b039091161792909217169190911791909117815560808201516001820190610b6f90826121ec565b5060a08201516002820190610b8490826121ec565b5060c08201516003820190610b9990826121ec565b5050506001600160a01b0382166000908152600760209081526040808320600980548254600181018455928652939094200191909155905490517f78bd041ccde566840671287ec2af1ba89e89999397da28c1e2c980c462d12c4b90610c0890899089908990899089906122ac565b60405180910390a260098054906000610c2083612308565b9190505550505050505050565b600660205260009081526040902080546001820180546001600160a01b0383169363ffffffff600160a01b8504811694600160c01b8104821694600160e01b90910490911692610c7c906120d6565b80601f0160208091040260200160405190810160405280929190818152602001828054610ca8906120d6565b8015610cf55780601f10610cca57610100808354040283529160200191610cf5565b820191906000526020600020905b815481529060010190602001808311610cd857829003601f168201915b505050505090806002018054610d0a906120d6565b80601f0160208091040260200160405190810160405280929190818152602001828054610d36906120d6565b8015610d835780601f10610d5857610100808354040283529160200191610d83565b820191906000526020600020905b815481529060010190602001808311610d6657829003601f168201915b505050505090806003018054610d98906120d6565b80601f0160208091040260200160405190810160405280929190818152602001828054610dc4906120d6565b8015610e115780601f10610de657610100808354040283529160200191610e11565b820191906000526020600020905b815481529060010190602001808311610df457829003601f168201915b5050505050905087565b6000828152600660205260409020546001600160a01b0316610e5057604051631eaebd1960e11b815260040160405180910390fd5b6000828152600660205260409020546001600160a01b03163314610e87576040516304b016c960e41b815260040160405180910390fd5b600082815260066020526040902054600190610eb99063ffffffff600160a01b8204811691600160c01b90041661215d565b610ec39190612181565b60008381526006602052604090205463ffffffff918216600160e01b9091049091161115610f04576040516340f6549f60e11b815260040160405180910390fd5b60008281526006602052604090208054610f5c918391600160e01b900463ffffffff1690601c610f3383612321565b91906101000a81548163ffffffff021916908363ffffffff16021790555063ffffffff1661161a565b5050565b60606001805461063d906120d6565b610f5c3383836117a5565b6001600160a01b03811660009081526007602090815260409182902080548351818402810184019094528084526060939283018282801561062257602002820191906000526020600020905b815481526020019060010190808311610fc65750505050509050919050565b610fef3383611438565b61100b5760405162461bcd60e51b815260040161075b90612110565b61101784848484611873565b50505050565b60008181526006602052604081205461104c9063ffffffff600160c01b8204811691600160e01b900416612181565b63ffffffff1692915050565b6001600160a01b03811661107f5760405163d92e233d60e01b815260040160405180910390fd5b6000828152600660205260409020546001600160a01b031633146110b6576040516304b016c960e41b815260040160405180910390fd5b60008281526006602052604080822080546001600160a01b0319166001600160a01b0385169081179091559051909184917fa45f64b64d3d529c6ec20136f62d48c17448960ccac66cd92d65320a6e8461ec9190a35050565b606061111a82611368565b6000611125836118a6565b600081815260066020526040812060030180549293509091611146906120d6565b80601f0160208091040260200160405190810160405280929190818152602001828054611172906120d6565b80156111bf5780601f10611194576101008083540402835291602001916111bf565b820191906000526020600020905b8154815290600101906020018083116111a257829003601f168201915b5050506000858152600660205260409020549293506111f09260019250600160c01b900463ffffffff169050612181565b6112009063ffffffff16856120c3565b93506000815111611220576040518060200160405280600081525061124b565b8061122a856119ab565b60405160200161123b929190612344565b6040516020818303038152906040525b949350505050565b6007602052816000526040600020818154811061126f57600080fd5b90600052602060002001600091509150505481565b600080611290836118a6565b905060001981036104d357604051631eaebd1960e11b815260040160405180910390fd5b6000806112c0836118a6565b905063fffffffe1981016112e757604051631eaebd1960e11b815260040160405180910390fd5b60008181526006602052604090205461130d90600160c01b900463ffffffff16846120c3565b6105829060016120b0565b60006001600160e01b031982166380ac58cd60e01b148061134957506001600160e01b03198216635b5e139f60e01b145b806104d357506301ffc9a760e01b6001600160e01b03198316146104d3565b6000818152600260205260409020546001600160a01b03166113c75760405162461bcd60e51b8152602060048201526018602482015277115490cdcc8c4e881a5b9d985b1a59081d1bdad95b88125160421b604482015260640161075b565b50565b600081815260046020526040902080546001600160a01b0319166001600160a01b03841690811790915581906113ff8261089e565b6001600160a01b03167f8c5be1e5ebec7d5bd14f71427d1e84f3dd0314c0f7b2291e5b200ac8c7c3b92560405160405180910390a45050565b6000806114448361089e565b9050806001600160a01b0316846001600160a01b0316148061148b57506001600160a01b0380821660009081526005602090815260408083209388168352929052205460ff165b8061124b5750836001600160a01b03166114a4846106c0565b6001600160a01b031614949350505050565b826001600160a01b03166114c98261089e565b6001600160a01b0316146114ef5760405162461bcd60e51b815260040161075b90612373565b6001600160a01b0382166115515760405162461bcd60e51b8152602060048201526024808201527f4552433732313a207472616e7366657220746f20746865207a65726f206164646044820152637265737360e01b606482015260840161075b565b826001600160a01b03166115648261089e565b6001600160a01b03161461158a5760405162461bcd60e51b815260040161075b90612373565b600081815260046020908152604080832080546001600160a01b03199081169091556001600160a01b0387811680865260038552838620805460001901905590871680865283862080546001019055868652600290945282852080549092168417909155905184937fddf252ad1be2c89b69c2b068fc378daa952ba7f163c4a11628f55a4df523b3ef91a4505050565b6001600160a01b0382166116705760405162461bcd60e51b815260206004820181905260248201527f4552433732313a206d696e7420746f20746865207a65726f2061646472657373604482015260640161075b565b6000818152600260205260409020546001600160a01b0316156116d55760405162461bcd60e51b815260206004820152601c60248201527f4552433732313a20746f6b656e20616c7265616479206d696e74656400000000604482015260640161075b565b6000818152600260205260409020546001600160a01b03161561173a5760405162461bcd60e51b815260206004820152601c60248201527f4552433732313a20746f6b656e20616c7265616479206d696e74656400000000604482015260640161075b565b6001600160a01b038216600081815260036020908152604080832080546001019055848352600290915280822080546001600160a01b0319168417905551839291907fddf252ad1be2c89b69c2b068fc378daa952ba7f163c4a11628f55a4df523b3ef908290a45050565b816001600160a01b0316836001600160a01b0316036118065760405162461bcd60e51b815260206004820152601960248201527f4552433732313a20617070726f766520746f2063616c6c657200000000000000604482015260640161075b565b6001600160a01b03838116600081815260056020908152604080832094871680845294825291829020805460ff191686151590811790915591519182527f17307eab39ab6107e8899845ad3d59bd9653f200f220920489ca2b5937696c31910160405180910390a3505050565b61187e8484846114b6565b61188a84848484611a3e565b6110175760405162461bcd60e51b815260040161075b906123b8565b60006009546000036118bb5750600019919050565b60008060016009546118cd91906120c3565b905060005b81831161199f5760026118e584846120c3565b6118ef919061240a565b6118f990846120b0565b60008181526006602052604081205491925063ffffffff600160c01b830481169261192d91600160a01b909104168361215d565b63ffffffff16905081871015801561194457508087105b1561195457509095945050505050565b80871061197b5783830361196957505061199f565b6119748360016120b0565b9450611998565b8260000361198a57505061199f565b6119956001846120c3565b93505b50506118d2565b50600019949350505050565b606060006119b883611b3f565b600101905060008167ffffffffffffffff8111156119d8576119d8611d85565b6040519080825280601f01601f191660200182016040528015611a02576020820181803683370190505b5090508181016020015b600019016f181899199a1a9b1b9c1cb0b131b232b360811b600a86061a8153600a8504945084611a0c57509392505050565b60006001600160a01b0384163b15611b3457604051630a85bd0160e11b81526001600160a01b0385169063150b7a0290611a8290339089908890889060040161242c565b6020604051808303816000875af1925050508015611abd575060408051601f3d908101601f19168201909252611aba91810190612469565b60015b611b1a573d808015611aeb576040519150601f19603f3d011682016040523d82523d6000602084013e611af0565b606091505b508051600003611b125760405162461bcd60e51b815260040161075b906123b8565b805181602001fd5b6001600160e01b031916630a85bd0160e11b14905061124b565b506001949350505050565b60008072184f03e93ff9f4daa797ed6e38ed64bf6a1f0160401b8310611b7e5772184f03e93ff9f4daa797ed6e38ed64bf6a1f0160401b830492506040015b6d04ee2d6d415b85acef81000000008310611baa576d04ee2d6d415b85acef8100000000830492506020015b662386f26fc100008310611bc857662386f26fc10000830492506010015b6305f5e1008310611be0576305f5e100830492506008015b6127108310611bf457612710830492506004015b60648310611c06576064830492506002015b600a83106104d35760010192915050565b6001600160e01b0319811681146113c757600080fd5b600060208284031215611c3f57600080fd5b813561058281611c17565b60008060408385031215611c5d57600080fd5b50508035926020909101359150565b600060208284031215611c7e57600080fd5b5035919050565b60005b83811015611ca0578181015183820152602001611c88565b50506000910152565b60008151808452611cc1816020860160208601611c85565b601f01601f19169290920160200192915050565b6020815260006105826020830184611ca9565b80356001600160a01b0381168114611cff57600080fd5b919050565b60008060408385031215611d1757600080fd5b611d2083611ce8565b946020939093013593505050565b600080600060608486031215611d4357600080fd5b611d4c84611ce8565b9250611d5a60208501611ce8565b9150604084013590509250925092565b600060208284031215611d7c57600080fd5b61058282611ce8565b634e487b7160e01b600052604160045260246000fd5b600067ffffffffffffffff80841115611db657611db6611d85565b604051601f8501601f19908116603f01168101908282118183101715611dde57611dde611d85565b81604052809350858152868686011115611df757600080fd5b858560208301376000602087830101525050509392505050565b600082601f830112611e2257600080fd5b61058283833560208501611d9b565b600080600080600060a08688031215611e4957600080fd5b853567ffffffffffffffff80821115611e6157600080fd5b611e6d89838a01611e11565b96506020880135915080821115611e8357600080fd5b611e8f89838a01611e11565b95506040880135915080821115611ea557600080fd5b50611eb288828901611e11565b93505060608601359150611ec860808701611ce8565b90509295509295909350565b6001600160a01b038816815263ffffffff878116602083015286811660408301528516606082015260e060808201819052600090611f1490830186611ca9565b82810360a0840152611f268186611ca9565b905082810360c0840152611f3a8185611ca9565b9a9950505050505050505050565b60008060408385031215611f5b57600080fd5b82359150611f6b60208401611ce8565b90509250929050565b60008060408385031215611f8757600080fd5b611f9083611ce8565b915060208301358015158114611fa557600080fd5b809150509250929050565b6020808252825182820181905260009190848201906040850190845b81811015611fe857835183529284019291840191600101611fcc565b50909695505050505050565b6000806000806080858703121561200a57600080fd5b61201385611ce8565b935061202160208601611ce8565b925060408501359150606085013567ffffffffffffffff81111561204457600080fd5b8501601f8101871361205557600080fd5b61206487823560208401611d9b565b91505092959194509250565b6000806040838503121561208357600080fd5b61208c83611ce8565b9150611f6b60208401611ce8565b634e487b7160e01b600052601160045260246000fd5b808201808211156104d3576104d361209a565b818103818111156104d3576104d361209a565b600181811c908216806120ea57607f821691505b60208210810361210a57634e487b7160e01b600052602260045260246000fd5b50919050565b6020808252602d908201527f4552433732313a2063616c6c6572206973206e6f7420746f6b656e206f776e6560408201526c1c881bdc88185c1c1c9bdd9959609a1b606082015260800190565b63ffffffff81811683821601908082111561217a5761217a61209a565b5092915050565b63ffffffff82811682821603908082111561217a5761217a61209a565b601f8211156107fc57600081815260208120601f850160051c810160208610156121c55750805b601f850160051c820191505b818110156121e4578281556001016121d1565b505050505050565b815167ffffffffffffffff81111561220657612206611d85565b61221a8161221484546120d6565b8461219e565b602080601f83116001811461224f57600084156122375750858301515b600019600386901b1c1916600185901b1785556121e4565b600085815260208120601f198616915b8281101561227e5788860151825594840194600190910190840161225f565b508582101561229c5787850151600019600388901b60f8161c191681555b5050505050600190811b01905550565b60a0815260006122bf60a0830188611ca9565b82810360208401526122d18188611ca9565b905082810360408401526122e58187611ca9565b606084019590955250506001600160a01b03919091166080909101529392505050565b60006001820161231a5761231a61209a565b5060010190565b600063ffffffff80831681810361233a5761233a61209a565b6001019392505050565b60008351612356818460208801611c85565b83519083019061236a818360208801611c85565b01949350505050565b60208082526025908201527f4552433732313a207472616e736665722066726f6d20696e636f72726563742060408201526437bbb732b960d91b606082015260800190565b60208082526032908201527f4552433732313a207472616e7366657220746f206e6f6e20455243373231526560408201527131b2b4bb32b91034b6b83632b6b2b73a32b960711b606082015260800190565b60008261242757634e487b7160e01b600052601260045260246000fd5b500490565b6001600160a01b038581168252841660208201526040810183905260806060820181905260009061245f90830184611ca9565b9695505050505050565b60006020828403121561247b57600080fd5b815161058281611c1756fea2646970667358221220a1e93f9f5fdb96a77bec047a980b989850a44f1397acdbc87c2f78f1d7260c5164736f6c63430008130033",
  "linkReferences": {},
  "deployedLinkReferences": {}
}